{"abi":[{"type":"function","name":"_msgSender","inputs":[],"outputs":[{"name":"sender","type":"address","internalType":"address"}],"stateMutability":"view"},{"type":"function","name":"_msgValue","inputs":[],"outputs":[{"name":"value","type":"uint256","internalType":"uint256"}],"stateMutability":"pure"},{"type":"function","name":"_world","inputs":[],"outputs":[{"name":"","type":"address","internalType":"address"}],"stateMutability":"view"},{"type":"function","name":"nextPage","inputs":[],"outputs":[],"stateMutability":"nonpayable"},{"type":"function","name":"prevPage","inputs":[],"outputs":[],"stateMutability":"nonpayable"},{"type":"function","name":"supportsInterface","inputs":[{"name":"interfaceId","type":"bytes4","internalType":"bytes4"}],"outputs":[{"name":"","type":"bool","internalType":"bool"}],"stateMutability":"pure"},{"type":"event","name":"Store_SpliceStaticData","inputs":[{"name":"tableId","type":"bytes32","indexed":true,"internalType":"ResourceId"},{"name":"keyTuple","type":"bytes32[]","indexed":false,"internalType":"bytes32[]"},{"name":"start","type":"uint48","indexed":false,"internalType":"uint48"},{"name":"data","type":"bytes","indexed":false,"internalType":"bytes"}],"anonymous":false},{"type":"error","name":"Slice_OutOfBounds","inputs":[{"name":"data","type":"bytes","internalType":"bytes"},{"name":"start","type":"uint256","internalType":"uint256"},{"name":"end","type":"uint256","internalType":"uint256"}]}],"bytecode":{"object":"0x608060405234801561001057600080fd5b5061123c806100206000396000f3fe608060405234801561001057600080fd5b50600436106100725760003560e01c80633fa473b8116100505780633fa473b8146100d657806345ec9354146100de578063e1af802c146100f157600080fd5b806301ffc9a714610077578063087e6dc81461009f578063119df25f146100a9575b600080fd5b61008a610085366004610f47565b6100f9565b60405190151581526020015b60405180910390f35b6100a7610192565b005b6100b1610200565b60405173ffffffffffffffffffffffffffffffffffffffff9091168152602001610096565b6100a761020f565b604051601f193601358152602001610096565b6100b1610274565b60007fffffffff0000000000000000000000000000000000000000000000000000000082167fb5dee12700000000000000000000000000000000000000000000000000000000148061018c57507fffffffff0000000000000000000000000000000000000000000000000000000082167f01ffc9a700000000000000000000000000000000000000000000000000000000145b92915050565b60006101b861019f610200565b73ffffffffffffffffffffffffffffffffffffffff1690565b905060006101c58261027e565b9050806000036101de576101da826000610317565b5050565b6101ea60076001610f9f565b6101f49082610fd7565b90506101da82826103d5565b600061020a610489565b905090565b600061021c61019f610200565b905060006102298261027e565b905061023760016007610fd7565b8103610241575050565b61024d60026007610fd7565b810361025e5761025e826001610317565b61026a60076001610f9f565b6101f49082610fea565b600061020a6104bb565b6040805160018082528183019092526000918291906020808301908036833701905050905082816000815181106102b7576102b7610ffd565b6020908102919091010152600061030f7f746200000000000000000000000000005061676500000000000000000000000083837e200100200000000000000000000000000000000000000000000000000000006104c5565b949350505050565b60408051600180825281830190925260009160208083019080368337019050509050828160008151811061034d5761034d610ffd565b6020026020010181815250506103d07f746200000000000000000000000000004d6f7661626c6500000000000000000060001b8260008560405160200161039b91151560f81b815260010190565b60408051601f198184030181529190527e0101000100000000000000000000000000000000000000000000000000000061059c565b505050565b60408051600180825281830190925260009160208083019080368337019050509050828160008151811061040b5761040b610ffd565b6020026020010181815250506103d07f746200000000000000000000000000005061676500000000000000000000000060001b8260008560405160200161045491815260200190565b60408051601f198184030181529190527e2001002000000000000000000000000000000000000000000000000000000061059c565b7fffffffffffffffffffffffffffffffffffffffffffffffffffffffffffffffcc36013560601c806104b85750335b90565b600061020a61066c565b6000806104d061066c565b90503073ffffffffffffffffffffffffffffffffffffffff821603610503576104fb868686866106b8565b91505061030f565b6040517f8c364d5900000000000000000000000000000000000000000000000000000000815273ffffffffffffffffffffffffffffffffffffffff821690638c364d599061055b90899089908990899060040161104f565b602060405180830381865afa158015610578573d6000803e3d6000fd5b505050506040513d601f19601f820116820180604052508101906104fb919061107e565b60006105a661066c565b90503073ffffffffffffffffffffffffffffffffffffffff8216036105d7576105d286868686866106ee565b610664565b6040517f390baae000000000000000000000000000000000000000000000000000000000815273ffffffffffffffffffffffffffffffffffffffff82169063390baae09061063190899089908990899089906004016110dd565b600060405180830381600087803b15801561064b57600080fd5b505af115801561065f573d6000803e3d6000fd5b505050505b505050505050565b7f629a4c26e296b22a8e0856e9f6ecb2d1008d7e00081111962cd175fa7488e1755460009073ffffffffffffffffffffffffffffffffffffffff16806106b3573391505090565b919050565b60006106e56106c7868661070a565b60ff858116601b0360080285901c166106e08587610760565b610799565b95945050505050565b61070385856106fd8487610760565b856107ea565b5050505050565b6000828260405160200161071f929190611124565b60408051601f1981840301815291905280516020909101207f86425bff6b57326c7859e89024fe4f238ca327a1ae4a230180dd2f0e88aaa7d9189392505050565b600080805b8360ff168110156107915761078760ff601b83900360080287901c1683610fea565b9150600101610765565b509392505050565b6000602082106107bf576020820484019350602082816107bb576107bb610f89565b0691505b508254600882021b602082900380841115610791576001850154600882021c82179150509392505050565b7f6f74000000000000000000000000000000000000000000000000000000000000847fffff000000000000000000000000000000000000000000000000000000000000160361087457837f8c0b5119d4cec7b284c6b1b39252a03d1e2f2d7451a5895562524c113bb952be84848460405161086793929190611160565b60405180910390a2610a89565b6000610880858561070a565b9050600061088d86610a8f565b905060005b81518110156109625760008282815181106108af576108af610ffd565b602002602001015190506108db6004826affffffffffffffffffffff1916610b1890919063ffffffff16565b15610959576040517f964f667d000000000000000000000000000000000000000000000000000000008152606082901c9063964f667d90610926908b908b908b908b9060040161119d565b600060405180830381600087803b15801561094057600080fd5b505af1158015610954573d6000803e3d6000fd5b505050505b50600101610892565b50857f8c0b5119d4cec7b284c6b1b39252a03d1e2f2d7451a5895562524c113bb952be86868660405161099793929190611160565b60405180910390a26109b2828565ffffffffffff1685610b36565b60005b8151811015610a855760008282815181106109d2576109d2610ffd565b602002602001015190506109fe6008826affffffffffffffffffffff1916610b1890919063ffffffff16565b15610a7c576040517fa8ba8721000000000000000000000000000000000000000000000000000000008152606082901c9063a8ba872190610a49908b908b908b908b9060040161119d565b600060405180830381600087803b158015610a6357600080fd5b505af1158015610a77573d6000803e3d6000fd5b505050505b506001016109b5565b5050505b50505050565b60408051600180825281830190925260609160009190602080830190803683370190505090508281600081518110610ac957610ac9610ffd565b60209081029190910101526000610b017f746273746f726500000000000000000053746f7265486f6f6b730000000000008383610b4c565b905061030f610b138260008451610b86565b610c1d565b60008160ff1682610b298560581c90565b1660ff1614905092915050565b6103d083838351610b478560200190565b610c35565b606061030f610b5c858585610cf4565b6000610b8185610b6c8989610d74565b9060ff166028026038011c64ffffffffff1690565b610d87565b600081831180610b965750835182115b15610bdc578383836040517f23230fa3000000000000000000000000000000000000000000000000000000008152600401610bd3939291906111e1565b60405180910390fd5b60208401610bea8482610fea565b90506000610bf88585610fd7565b6fffffffffffffffffffffffffffffffff1660809290921b9190911795945050505050565b60606000610c2e8360156000610daa565b9392505050565b8215610caf5760208310610c5f57602083048401935060208381610c5b57610c5b610f89565b0692505b8215610caf5760208390036000600019600885021c1990506008850281811c91508351811c9050811987541682821617875550818411610ca0575050610a89565b50600194909401939182900391015b5b60208210610cd15780518455600190930192601f1990910190602001610cb0565b8115610a89576000600019600884021c8554835182191691161785555050505050565b60008383604051602001610d09929190611124565b604051602081830303815290604052805190602001208260f81b7effffffffffffffffffffffffffffffffffffffffffffffffffffffffffffff19167f3b4102da22e32d82fc925482184f16c09fd4281692720b87d124aef6da48a0f1181860001c90509392505050565b6000610c2e610d838484610e25565b5490565b60405160208101601f19603f848401011660405282825261079185858584610e7b565b60606000610db88560801c90565b90506fffffffffffffffffffffffffffffffff85166000858281610dde57610dde610f89565b04905060405193506020840160208202810160405281855260005b82811015610e19578451871c825293870193602090910190600101610df9565b50505050509392505050565b60008282604051602001610e3a929190611124565b60408051601f1981840301815291905280516020909101207f14e2fcc58e58e68ec7edc30c8d50dccc3ce2714a623ec81f46b6a63922d76569189392505050565b8215610f025760208310610ea557602083048401935060208381610ea157610ea1610f89565b0692505b8215610f02576020839003600081841015610ec85750600019600884021c610ed2565b50600019600882021c5b8554600886021b818451168219821617845250818411610ef3575050610a89565b50600194909401939182900391015b5b60208210610f245783548152600190930192601f1990910190602001610f03565b8115610a89576000600019600884021c8251865482191691161782525050505050565b600060208284031215610f5957600080fd5b81357fffffffff0000000000000000000000000000000000000000000000000000000081168114610c2e57600080fd5b634e487b7160e01b600052601260045260246000fd5b600082610fbc57634e487b7160e01b600052601260045260246000fd5b500690565b634e487b7160e01b600052601160045260246000fd5b8181038181111561018c5761018c610fc1565b8082018082111561018c5761018c610fc1565b634e487b7160e01b600052603260045260246000fd5b60008151808452602080850194506020840160005b8381101561104457815187529582019590820190600101611028565b509495945050505050565b8481526080602082015260006110686080830186611013565b60ff949094166040830152506060015292915050565b60006020828403121561109057600080fd5b5051919050565b6000815180845260005b818110156110bd576020818501810151868301820152016110a1565b506000602082860101526020601f19601f83011685010191505092915050565b85815260a0602082015260006110f660a0830187611013565b60ff8616604084015282810360608401526111118186611097565b9150508260808301529695505050505050565b8281526000602080830184516020860160005b8281101561115357815184529284019290840190600101611137565b5091979650505050505050565b6060815260006111736060830186611013565b65ffffffffffff8516602084015282810360408401526111938185611097565b9695505050505050565b8481526080602082015260006111b66080830186611013565b65ffffffffffff8516604084015282810360608401526111d68185611097565b979650505050505050565b6060815260006111f46060830186611097565b6020830194909452506040015291905056fea2646970667358221220165db4b6950beb06a9b79bb535bf837ecc2e217a70e1354f4e16206abda5a28f64736f6c63430008180033","linkReferences":{}},"methodIdentifiers":{"_msgSender()":"119df25f","_msgValue()":"45ec9354","_world()":"e1af802c","nextPage()":"3fa473b8","prevPage()":"087e6dc8","supportsInterface(bytes4)":"01ffc9a7"},"id":89}