{"abi":[{"type":"function","name":"_msgSender","inputs":[],"outputs":[{"name":"sender","type":"address","internalType":"address"}],"stateMutability":"view"},{"type":"function","name":"_msgValue","inputs":[],"outputs":[{"name":"value","type":"uint256","internalType":"uint256"}],"stateMutability":"pure"},{"type":"function","name":"_world","inputs":[],"outputs":[{"name":"","type":"address","internalType":"address"}],"stateMutability":"view"},{"type":"function","name":"setMap","inputs":[{"name":"width","type":"uint32","internalType":"uint32"},{"name":"height","type":"uint32","internalType":"uint32"},{"name":"terrain","type":"bytes","internalType":"bytes"}],"outputs":[],"stateMutability":"nonpayable"},{"type":"function","name":"supportsInterface","inputs":[{"name":"interfaceId","type":"bytes4","internalType":"bytes4"}],"outputs":[{"name":"","type":"bool","internalType":"bool"}],"stateMutability":"pure"},{"type":"event","name":"Store_SetRecord","inputs":[{"name":"tableId","type":"bytes32","indexed":true,"internalType":"ResourceId"},{"name":"keyTuple","type":"bytes32[]","indexed":false,"internalType":"bytes32[]"},{"name":"staticData","type":"bytes","indexed":false,"internalType":"bytes"},{"name":"encodedLengths","type":"bytes32","indexed":false,"internalType":"EncodedLengths"},{"name":"dynamicData","type":"bytes","indexed":false,"internalType":"bytes"}],"anonymous":false},{"type":"event","name":"Store_SpliceStaticData","inputs":[{"name":"tableId","type":"bytes32","indexed":true,"internalType":"ResourceId"},{"name":"keyTuple","type":"bytes32[]","indexed":false,"internalType":"bytes32[]"},{"name":"start","type":"uint48","indexed":false,"internalType":"uint48"},{"name":"data","type":"bytes","indexed":false,"internalType":"bytes"}],"anonymous":false},{"type":"error","name":"Slice_OutOfBounds","inputs":[{"name":"data","type":"bytes","internalType":"bytes"},{"name":"start","type":"uint256","internalType":"uint256"},{"name":"end","type":"uint256","internalType":"uint256"}]}],"bytecode":{"object":"0x608060405234801561001057600080fd5b50612068806100206000396000f3fe608060405234801561001057600080fd5b50600436106100675760003560e01c806345ec93541161005057806345ec9354146100c1578063e1af802c146100d4578063f2f6218a146100dc57600080fd5b806301ffc9a71461006c578063119df25f14610094575b600080fd5b61007f61007a3660046119ff565b6100f1565b60405190151581526020015b60405180910390f35b61009c61018a565b60405173ffffffffffffffffffffffffffffffffffffffff909116815260200161008b565b604051601f19360135815260200161008b565b61009c610199565b6100ef6100ea366004611ac4565b6101a3565b005b60007fffffffff0000000000000000000000000000000000000000000000000000000082167fb5dee12700000000000000000000000000000000000000000000000000000000148061018457507fffffffff0000000000000000000000000000000000000000000000000000000082167f01ffc9a700000000000000000000000000000000000000000000000000000000145b92915050565b6000610194610336565b905090565b6000610194610368565b60008363ffffffff161180156101bf575060008263ffffffff16115b610250576040517f08c379a000000000000000000000000000000000000000000000000000000000815260206004820152602b60248201527f4d617a6547656e657261746f7253797374656d3a20496e76616c6964206d617060448201527f2064696d656e73696f6e7300000000000000000000000000000000000000000060648201526084015b60405180910390fd5b61025a8284611b7b565b63ffffffff168151146102ef576040517f08c379a000000000000000000000000000000000000000000000000000000000815260206004820152602b60248201527f4d617a6547656e657261746f7253797374656d3a20496e76616c69642074657260448201527f7261696e206c656e6774680000000000000000000000000000000000000000006064820152608401610247565b60006103156102fc61018a565b73ffffffffffffffffffffffffffffffffffffffff1690565b905061032381858585610372565b6103306001600083610414565b50505050565b7fffffffffffffffffffffffffffffffffffffffffffffffffffffffffffffffcc36013560601c806103655750335b90565b6000610194610487565b600061037e84846104d3565b9050600061038b8361052a565b905060006103988461053a565b604080516001808252818301909252919250600091906020808301908036833701905050905087816000815181106103d2576103d2611ba3565b602090810291909101015261040a7f746200000000000000000000000000004d6170436f6e6669670000000000000082868686610563565b5050505050505050565b60008061042083610633565b509092509050816104318187611bb9565b61043b9190611c11565b9450806104488186611bb9565b6104529190611c11565b935061045f8360016106ec565b61046a8386866107aa565b610475836000610836565b6104808360006108ba565b5050505050565b7f629a4c26e296b22a8e0856e9f6ecb2d1008d7e00081111962cd175fa7488e1755460009073ffffffffffffffffffffffffffffffffffffffff16806104ce573391505090565b919050565b6040517fffffffff0000000000000000000000000000000000000000000000000000000060e084811b8216602084015283901b1660248201526060906028015b604051602081830303815290604052905092915050565b60006101848251603881901b1790565b60608160405160200161054d9190611c65565b6040516020818303038152906040529050919050565b600061056d610487565b90503073ffffffffffffffffffffffffffffffffffffffff82160361059e57610599868686868661096e565b61062b565b6040517f298314fb00000000000000000000000000000000000000000000000000000000815273ffffffffffffffffffffffffffffffffffffffff82169063298314fb906105f89089908990899089908990600401611ce9565b600060405180830381600087803b15801561061257600080fd5b505af1158015610626573d6000803e3d6000fd5b505050505b505050505050565b604080516001808252818301909252600091829160609183919060208083019080368337019050509050848160008151811061067157610671611ba3565b6020908102919091010152600080806106ca7f746200000000000000000000000000004d6170436f6e66696700000000000000857e08020104040000000000000000000000000000000000000000000000000000610984565b9250925092506106db838383610a6e565b965096509650505050509193909250565b60408051600180825281830190925260009160208083019080368337019050509050828160008151811061072257610722611ba3565b6020026020010181815250506107a57f74620000000000000000000000000000506c617965720000000000000000000060001b8260008560405160200161077091151560f81b815260010190565b60408051601f198184030181529190527e01010001000000000000000000000000000000000000000000000000000000610aa7565b505050565b60006107b68383610b37565b6040805160018082528183019092529192506000916060918391906020808301908036833701905050905086816000815181106107f5576107f5611ba3565b602090810291909101015261082d7f74620000000000000000000000000000506f736974696f6e000000000000000082868686610563565b50505050505050565b60408051600180825281830190925260009160208083019080368337019050509050828160008151811061086c5761086c611ba3565b6020026020010181815250506107a57f7462000000000000000000000000000057696e6e65720000000000000000000060001b8260008560405160200161077091151560f81b815260010190565b6040805160018082528183019092526000916020808301908036833701905050905082816000815181106108f0576108f0611ba3565b6020026020010181815250506107a57f746200000000000000000000000000005061676500000000000000000000000060001b8260008560405160200161093991815260200190565b60408051601f198184030181529190527e20010020000000000000000000000000000000000000000000000000000000610aa7565b610480858585858561097f8b610b57565b610bdc565b6060600060606000610994610487565b90503073ffffffffffffffffffffffffffffffffffffffff8216036109ca576109be878787610f15565b93509350935050610a65565b6040517f419b58fd00000000000000000000000000000000000000000000000000000000815273ffffffffffffffffffffffffffffffffffffffff82169063419b58fd90610a20908a908a908a90600401611d3a565b600060405180830381865afa158015610a3d573d6000803e3d6000fd5b505050506040513d6000823e601f3d908101601f191682016040526109be9190810190611da8565b93509350939050565b6000806060610a8d86602081015160249091015160e091821c92911c90565b9093509150610a9c858561101d565b905093509350939050565b6000610ab1610487565b90503073ffffffffffffffffffffffffffffffffffffffff821603610add576105998686868686611049565b6040517f390baae000000000000000000000000000000000000000000000000000000000815273ffffffffffffffffffffffffffffffffffffffff82169063390baae0906105f89089908990899089908990600401611e15565b60405160e083811b602083015282901b6024820152606090602801610513565b60007f8b9d8c8b908d9affffffffffffffffffab9e9d939a8d000000000000000000008201610ba657507e60030220202000000000000000000000000000000000000000000000000000919050565b610184610bd37f746273746f72650000000000000000005461626c6573000000000000000000008461105e565b602060006110b7565b7f6f74000000000000000000000000000000000000000000000000000000000000867fffff0000000000000000000000000000000000000000000000000000000000001603610c6857857f8dbb3a9672eebfd3773e72dd9c102393436816d832c7ba9e1e1ac8fcadcac7a986868686604051610c5b9493929190611e5c565b60405180910390a261062b565b6000610c7387611109565b905060005b8151811015610d4c576000828281518110610c9557610c95611ba3565b60200260200101519050610cc16001826affffffffffffffffffffff191661119a90919063ffffffff16565b15610d43576040517f57066c9c000000000000000000000000000000000000000000000000000000008152606082901c906357066c9c90610d10908c908c908c908c908c908c90600401611ea6565b600060405180830381600087803b158015610d2a57600080fd5b505af1158015610d3e573d6000803e3d6000fd5b505050505b50600101610c78565b50867f8dbb3a9672eebfd3773e72dd9c102393436816d832c7ba9e1e1ac8fcadcac7a987878787604051610d839493929190611e5c565b60405180910390a26000610d9788886111b8565b90506000602087019050610daf8260008951846111cd565b6000610dba8561128c565b1115610e3e576000610dcc8a8a6112c9565b878155905060208601915060008060005b610de68861128c565b8160ff161015610e3957610dfb8d8d8361131f565b9250610e168a8260ff166028026038011c64ffffffffff1690565b9150610e2583600084886111cd565b610e2f8286611eff565b9450600101610ddd565b505050505b60005b8351811015610626576000848281518110610e5e57610e5e611ba3565b60200260200101519050610e8a6002826affffffffffffffffffffff191661119a90919063ffffffff16565b15610f0c576040517f5b28cdaf000000000000000000000000000000000000000000000000000000008152606082901c90635b28cdaf90610ed9908e908e908e908e908e908e90600401611ea6565b600060405180830381600087803b158015610ef357600080fd5b505af1158015610f07573d6000803e3d6000fd5b505050505b50600101610e41565b6060600060606000610f26856113a0565b9050610f338787836113c3565b93506000610f408661128c565b9050801561101257610f5288886113fc565b935066ffffffffffffff841667ffffffffffffffff811115610f7657610f76611a55565b6040519080825280601f01601f191660200182016040528015610fa0576020820181803683370190505b5092506020830160005b828160ff16101561100f576000610fc28b8b8461131f565b90506000610fdf888460ff166028026038011c64ffffffffff1690565b9050610fee826000838761140f565b610ff88185611eff565b93505050808061100790611f12565b915050610faa565b50505b505093509350939050565b60606000603884901c64ffffffffff1661104061103b8584846114db565b611569565b95945050505050565b610480858561105884876115e9565b8561161a565b60408051602081018490529081018290526000906060015b60408051601f1981840301815291905280516020909101207f86425bff6b57326c7859e89024fe4f238ca327a1ae4a230180dd2f0e88aaa7d9189392505050565b6000602082106110dd576020820484019350602082816110d9576110d9611bfb565b0691505b508254600882021b602082900380841115611101576001850154600882021c821791505b509392505050565b6040805160018082528183019092526060916000919060208083019080368337019050509050828160008151811061114357611143611ba3565b6020908102919091010152600061117b7f746273746f726500000000000000000053746f7265486f6f6b7300000000000083836118b5565b905061119261118d82600084516114db565b6118ef565b949350505050565b60008160ff16826111ab8560581c90565b1660ff1614905092915050565b60008282604051602001611076929190611f31565b821561124757602083106111f7576020830484019350602083816111f3576111f3611bfb565b0692505b82156112475760208390036000600019600885021c1990506008850281811c91508351811c9050811987541682821617875550818411611238575050610330565b50600194909401939182900391015b5b602082106112695780518455600190930192601f1990910190602001611248565b8115610330576000600019600884021c8554835182191691161785555050505050565b6000600860018061129f60026020611f6d565b6112a99190611f6d565b6112b39190611f6d565b6112bd9190611f80565b8260ff911c1692915050565b600082826040516020016112de929190611f31565b60408051601f1981840301815291905280516020909101207f14e2fcc58e58e68ec7edc30c8d50dccc3ce2714a623ec81f46b6a63922d76569189392505050565b60008383604051602001611334929190611f31565b604051602081830303815290604052805190602001208260f81b7effffffffffffffffffffffffffffffffffffffffffffffffffffffffffffff19167f3b4102da22e32d82fc925482184f16c09fd4281692720b87d124aef6da48a0f1181860001c90505b9392505050565b600060086113b060026020611f6d565b6113ba9190611f80565b9190911c919050565b6060816000036113e25750604080516020810190915260008152611399565b60006113ee85856111b8565b905061104081600085611900565b600061139961140b84846112c9565b5490565b821561149657602083106114395760208304840193506020838161143557611435611bfb565b0692505b821561149657602083900360008184101561145c5750600019600884021c611466565b50600019600882021c5b8554600886021b818451168219821617845250818411611487575050610330565b50600194909401939182900391015b5b602082106114b85783548152600190930192601f1990910190602001611497565b8115610330576000600019600884021c8251865482191691161782525050505050565b6000818311806114eb5750835182115b15611528578383836040517f23230fa300000000000000000000000000000000000000000000000000000000815260040161024793929190611f97565b602084016115368482611eff565b905060006115448585611f6d565b6fffffffffffffffffffffffffffffffff1660809290921b9190911795945050505050565b606060006115778360801c90565b90506fffffffffffffffffffffffffffffffff83168067ffffffffffffffff8111156115a5576115a5611a55565b6040519080825280601f01601f1916602001820160405280156115cf576020820181803683370190505b509250602083016115e1838284611923565b505050919050565b600080805b8360ff168110156111015761161060ff601b83900360080287901c1683611eff565b91506001016115ee565b7f6f74000000000000000000000000000000000000000000000000000000000000847fffff00000000000000000000000000000000000000000000000000000000000016036116a457837f8c0b5119d4cec7b284c6b1b39252a03d1e2f2d7451a5895562524c113bb952be84848460405161169793929190611fbc565b60405180910390a2610330565b60006116b085856111b8565b905060006116bd86611109565b905060005b81518110156117925760008282815181106116df576116df611ba3565b6020026020010151905061170b6004826affffffffffffffffffffff191661119a90919063ffffffff16565b15611789576040517f964f667d000000000000000000000000000000000000000000000000000000008152606082901c9063964f667d90611756908b908b908b908b90600401611ff9565b600060405180830381600087803b15801561177057600080fd5b505af1158015611784573d6000803e3d6000fd5b505050505b506001016116c2565b50857f8c0b5119d4cec7b284c6b1b39252a03d1e2f2d7451a5895562524c113bb952be8686866040516117c793929190611fbc565b60405180910390a26117e2828565ffffffffffff168561196e565b60005b815181101561082d57600082828151811061180257611802611ba3565b6020026020010151905061182e6008826affffffffffffffffffffff191661119a90919063ffffffff16565b156118ac576040517fa8ba8721000000000000000000000000000000000000000000000000000000008152606082901c9063a8ba872190611879908b908b908b908b90600401611ff9565b600060405180830381600087803b15801561189357600080fd5b505af11580156118a7573d6000803e3d6000fd5b505050505b506001016117e5565b60606111926118c585858561131f565b60006118ea856118d589896113fc565b9060ff166028026038011c64ffffffffff1690565b611900565b606060006113998360156000611984565b60405160208101601f19603f84840101166040528282526111018585858461140f565b5b60208110611943578251825260209283019290910190601f1901611924565b8060000361195057505050565b6000600019600883021c905080835116811985511617835250505050565b6107a58383835161197f8560200190565b6111cd565b606060006119928560801c90565b90506fffffffffffffffffffffffffffffffff851660008582816119b8576119b8611bfb565b04905060405193506020840160208202810160405281855260005b828110156119f3578451871c8252938701936020909101906001016119d3565b50505050509392505050565b600060208284031215611a1157600080fd5b81357fffffffff000000000000000000000000000000000000000000000000000000008116811461139957600080fd5b803563ffffffff811681146104ce57600080fd5b634e487b7160e01b600052604160045260246000fd5b604051601f8201601f1916810167ffffffffffffffff81118282101715611a9457611a94611a55565b604052919050565b600067ffffffffffffffff821115611ab657611ab6611a55565b50601f01601f191660200190565b600080600060608486031215611ad957600080fd5b611ae284611a41565b9250611af060208501611a41565b9150604084013567ffffffffffffffff811115611b0c57600080fd5b8401601f81018613611b1d57600080fd5b8035611b30611b2b82611a9c565b611a6b565b818152876020838501011115611b4557600080fd5b816020840160208301376000602083830101528093505050509250925092565b634e487b7160e01b600052601160045260246000fd5b63ffffffff818116838216028082169190828114611b9b57611b9b611b65565b505092915050565b634e487b7160e01b600052603260045260246000fd5b600381810b9083900b01637fffffff81137fffffffffffffffffffffffffffffffffffffffffffffffffffffffff800000008212171561018457610184611b65565b634e487b7160e01b600052601260045260246000fd5b60008260030b80611c3257634e487b7160e01b600052601260045260246000fd5b808360030b0791505092915050565b60005b83811015611c5c578181015183820152602001611c44565b50506000910152565b60008251611c77818460208701611c41565b9190910192915050565b60008151808452602080850194506020840160005b83811015611cb257815187529582019590820190600101611c96565b509495945050505050565b60008151808452611cd5816020860160208601611c41565b601f01601f19169290920160200192915050565b85815260a060208201526000611d0260a0830187611c81565b8281036040840152611d148187611cbd565b90508460608401528281036080840152611d2e8185611cbd565b98975050505050505050565b838152606060208201526000611d536060830185611c81565b9050826040830152949350505050565b600082601f830112611d7457600080fd5b8151611d82611b2b82611a9c565b818152846020838601011115611d9757600080fd5b611192826020830160208701611c41565b600080600060608486031215611dbd57600080fd5b835167ffffffffffffffff80821115611dd557600080fd5b611de187838801611d63565b9450602086015193506040860151915080821115611dfe57600080fd5b50611e0b86828701611d63565b9150509250925092565b85815260a060208201526000611e2e60a0830187611c81565b60ff861660408401528281036060840152611e498186611cbd565b9150508260808301529695505050505050565b608081526000611e6f6080830187611c81565b8281036020840152611e818187611cbd565b90508460408401528281036060840152611e9b8185611cbd565b979650505050505050565b86815260c060208201526000611ebf60c0830188611c81565b8281036040840152611ed18188611cbd565b90508560608401528281036080840152611eeb8186611cbd565b9150508260a0830152979650505050505050565b8082018082111561018457610184611b65565b600060ff821660ff8103611f2857611f28611b65565b60010192915050565b8281526000602080830184516020860160005b82811015611f6057815184529284019290840190600101611f44565b5091979650505050505050565b8181038181111561018457610184611b65565b808202811582820484141761018457610184611b65565b606081526000611faa6060830186611cbd565b60208301949094525060400152919050565b606081526000611fcf6060830186611c81565b65ffffffffffff851660208401528281036040840152611fef8185611cbd565b9695505050505050565b8481526080602082015260006120126080830186611c81565b65ffffffffffff851660408401528281036060840152611e9b8185611cbd56fea264697066735822122001a624b41e16576833e378f83abbdc287d02d854557c93b8e15280356798539c64736f6c63430008180033","linkReferences":{}},"methodIdentifiers":{"_msgSender()":"119df25f","_msgValue()":"45ec9354","_world()":"e1af802c","setMap(uint32,uint32,bytes)":"f2f6218a","supportsInterface(bytes4)":"01ffc9a7"},"id":91}