{"abi":[{"type":"function","name":"_msgSender","inputs":[],"outputs":[{"name":"sender","type":"address","internalType":"address"}],"stateMutability":"view"},{"type":"function","name":"_msgValue","inputs":[],"outputs":[{"name":"value","type":"uint256","internalType":"uint256"}],"stateMutability":"pure"},{"type":"function","name":"_world","inputs":[],"outputs":[{"name":"","type":"address","internalType":"address"}],"stateMutability":"view"},{"type":"function","name":"setMap","inputs":[{"name":"width","type":"uint32","internalType":"uint32"},{"name":"height","type":"uint32","internalType":"uint32"},{"name":"terrain","type":"bytes","internalType":"bytes"}],"outputs":[],"stateMutability":"nonpayable"},{"type":"function","name":"supportsInterface","inputs":[{"name":"interfaceId","type":"bytes4","internalType":"bytes4"}],"outputs":[{"name":"","type":"bool","internalType":"bool"}],"stateMutability":"pure"},{"type":"event","name":"Store_SetRecord","inputs":[{"name":"tableId","type":"bytes32","indexed":true,"internalType":"ResourceId"},{"name":"keyTuple","type":"bytes32[]","indexed":false,"internalType":"bytes32[]"},{"name":"staticData","type":"bytes","indexed":false,"internalType":"bytes"},{"name":"encodedLengths","type":"bytes32","indexed":false,"internalType":"EncodedLengths"},{"name":"dynamicData","type":"bytes","indexed":false,"internalType":"bytes"}],"anonymous":false},{"type":"event","name":"Store_SpliceStaticData","inputs":[{"name":"tableId","type":"bytes32","indexed":true,"internalType":"ResourceId"},{"name":"keyTuple","type":"bytes32[]","indexed":false,"internalType":"bytes32[]"},{"name":"start","type":"uint48","indexed":false,"internalType":"uint48"},{"name":"data","type":"bytes","indexed":false,"internalType":"bytes"}],"anonymous":false},{"type":"error","name":"Slice_OutOfBounds","inputs":[{"name":"data","type":"bytes","internalType":"bytes"},{"name":"start","type":"uint256","internalType":"uint256"},{"name":"end","type":"uint256","internalType":"uint256"}]}],"bytecode":{"object":"0x608060405234801561001057600080fd5b506120c7806100206000396000f3fe608060405234801561001057600080fd5b50600436106100675760003560e01c806345ec93541161005057806345ec9354146100c1578063e1af802c146100d4578063f2f6218a146100dc57600080fd5b806301ffc9a71461006c578063119df25f14610094575b600080fd5b61007f61007a366004611a5e565b6100f1565b60405190151581526020015b60405180910390f35b61009c61018a565b60405173ffffffffffffffffffffffffffffffffffffffff909116815260200161008b565b604051601f19360135815260200161008b565b61009c610199565b6100ef6100ea366004611b23565b6101a3565b005b60007fffffffff0000000000000000000000000000000000000000000000000000000082167fb5dee12700000000000000000000000000000000000000000000000000000000148061018457507fffffffff0000000000000000000000000000000000000000000000000000000082167f01ffc9a700000000000000000000000000000000000000000000000000000000145b92915050565b6000610194610336565b905090565b6000610194610368565b60008363ffffffff161180156101bf575060008263ffffffff16115b610250576040517f08c379a000000000000000000000000000000000000000000000000000000000815260206004820152602b60248201527f4d617a6547656e657261746f7253797374656d3a20496e76616c6964206d617060448201527f2064696d656e73696f6e7300000000000000000000000000000000000000000060648201526084015b60405180910390fd5b61025a8284611bda565b63ffffffff168151146102ef576040517f08c379a000000000000000000000000000000000000000000000000000000000815260206004820152602b60248201527f4d617a6547656e657261746f7253797374656d3a20496e76616c69642074657260448201527f7261696e206c656e6774680000000000000000000000000000000000000000006064820152608401610247565b60006103156102fc61018a565b73ffffffffffffffffffffffffffffffffffffffff1690565b905061032381858585610372565b6103306001600083610414565b50505050565b7fffffffffffffffffffffffffffffffffffffffffffffffffffffffffffffffcc36013560601c806103655750335b90565b6000610194610492565b600061037e84846104de565b9050600061038b83610535565b9050600061039884610545565b604080516001808252818301909252919250600091906020808301908036833701905050905087816000815181106103d2576103d2611c02565b602090810291909101015261040a7f746200000000000000000000000000004d6170436f6e666967000000000000008286868661056e565b5050505050505050565b6000806104208361063e565b509092509050816104318187611c18565b61043b9190611c70565b9450806104488186611c18565b6104529190611c70565b935061045f8360016106f7565b61046a8386866107b5565b610475836001610841565b6104808360006108c5565b61048b836000610949565b5050505050565b7f629a4c26e296b22a8e0856e9f6ecb2d1008d7e00081111962cd175fa7488e1755460009073ffffffffffffffffffffffffffffffffffffffff16806104d9573391505090565b919050565b6040517fffffffff0000000000000000000000000000000000000000000000000000000060e084811b8216602084015283901b1660248201526060906028015b604051602081830303815290604052905092915050565b60006101848251603881901b1790565b6060816040516020016105589190611cc4565b6040516020818303038152906040529050919050565b6000610578610492565b90503073ffffffffffffffffffffffffffffffffffffffff8216036105a9576105a486868686866109cd565b610636565b6040517f298314fb00000000000000000000000000000000000000000000000000000000815273ffffffffffffffffffffffffffffffffffffffff82169063298314fb906106039089908990899089908990600401611d48565b600060405180830381600087803b15801561061d57600080fd5b505af1158015610631573d6000803e3d6000fd5b505050505b505050505050565b604080516001808252818301909252600091829160609183919060208083019080368337019050509050848160008151811061067c5761067c611c02565b6020908102919091010152600080806106d57f746200000000000000000000000000004d6170436f6e66696700000000000000857e080201040400000000000000000000000000000000000000000000000000006109e3565b9250925092506106e6838383610acd565b965096509650505050509193909250565b60408051600180825281830190925260009160208083019080368337019050509050828160008151811061072d5761072d611c02565b6020026020010181815250506107b07f74620000000000000000000000000000506c617965720000000000000000000060001b8260008560405160200161077b91151560f81b815260010190565b60408051601f198184030181529190527e01010001000000000000000000000000000000000000000000000000000000610b06565b505050565b60006107c18383610b96565b60408051600180825281830190925291925060009160609183919060208083019080368337019050509050868160008151811061080057610800611c02565b60209081029190910101526108387f74620000000000000000000000000000506f736974696f6e00000000000000008286868661056e565b50505050505050565b60408051600180825281830190925260009160208083019080368337019050509050828160008151811061087757610877611c02565b6020026020010181815250506107b07f746200000000000000000000000000004d6f7661626c6500000000000000000060001b8260008560405160200161077b91151560f81b815260010190565b6040805160018082528183019092526000916020808301908036833701905050905082816000815181106108fb576108fb611c02565b6020026020010181815250506107b07f7462000000000000000000000000000057696e6e65720000000000000000000060001b8260008560405160200161077b91151560f81b815260010190565b60408051600180825281830190925260009160208083019080368337019050509050828160008151811061097f5761097f611c02565b6020026020010181815250506107b07f74620000000000000000000000000000456e636f756e74657261626c6500000060001b8260008560405160200161077b91151560f81b815260010190565b61048b85858585856109de8b610bb6565b610c3b565b60606000606060006109f3610492565b90503073ffffffffffffffffffffffffffffffffffffffff821603610a2957610a1d878787610f74565b93509350935050610ac4565b6040517f419b58fd00000000000000000000000000000000000000000000000000000000815273ffffffffffffffffffffffffffffffffffffffff82169063419b58fd90610a7f908a908a908a90600401611d99565b600060405180830381865afa158015610a9c573d6000803e3d6000fd5b505050506040513d6000823e601f3d908101601f19168201604052610a1d9190810190611e07565b93509350939050565b6000806060610aec86602081015160249091015160e091821c92911c90565b9093509150610afb858561107c565b905093509350939050565b6000610b10610492565b90503073ffffffffffffffffffffffffffffffffffffffff821603610b3c576105a486868686866110a8565b6040517f390baae000000000000000000000000000000000000000000000000000000000815273ffffffffffffffffffffffffffffffffffffffff82169063390baae0906106039089908990899089908990600401611e74565b60405160e083811b602083015282901b602482015260609060280161051e565b60007f8b9d8c8b908d9affffffffffffffffffab9e9d939a8d000000000000000000008201610c0557507e60030220202000000000000000000000000000000000000000000000000000919050565b610184610c327f746273746f72650000000000000000005461626c657300000000000000000000846110bd565b60206000611116565b7f6f74000000000000000000000000000000000000000000000000000000000000867fffff0000000000000000000000000000000000000000000000000000000000001603610cc757857f8dbb3a9672eebfd3773e72dd9c102393436816d832c7ba9e1e1ac8fcadcac7a986868686604051610cba9493929190611ebb565b60405180910390a2610636565b6000610cd287611168565b905060005b8151811015610dab576000828281518110610cf457610cf4611c02565b60200260200101519050610d206001826affffffffffffffffffffff19166111f990919063ffffffff16565b15610da2576040517f57066c9c000000000000000000000000000000000000000000000000000000008152606082901c906357066c9c90610d6f908c908c908c908c908c908c90600401611f05565b600060405180830381600087803b158015610d8957600080fd5b505af1158015610d9d573d6000803e3d6000fd5b505050505b50600101610cd7565b50867f8dbb3a9672eebfd3773e72dd9c102393436816d832c7ba9e1e1ac8fcadcac7a987878787604051610de29493929190611ebb565b60405180910390a26000610df68888611217565b90506000602087019050610e0e82600089518461122c565b6000610e19856112eb565b1115610e9d576000610e2b8a8a611328565b878155905060208601915060008060005b610e45886112eb565b8160ff161015610e9857610e5a8d8d8361137e565b9250610e758a8260ff166028026038011c64ffffffffff1690565b9150610e84836000848861122c565b610e8e8286611f5e565b9450600101610e3c565b505050505b60005b8351811015610631576000848281518110610ebd57610ebd611c02565b60200260200101519050610ee96002826affffffffffffffffffffff19166111f990919063ffffffff16565b15610f6b576040517f5b28cdaf000000000000000000000000000000000000000000000000000000008152606082901c90635b28cdaf90610f38908e908e908e908e908e908e90600401611f05565b600060405180830381600087803b158015610f5257600080fd5b505af1158015610f66573d6000803e3d6000fd5b505050505b50600101610ea0565b6060600060606000610f85856113ff565b9050610f92878783611422565b93506000610f9f866112eb565b9050801561107157610fb1888861145b565b935066ffffffffffffff841667ffffffffffffffff811115610fd557610fd5611ab4565b6040519080825280601f01601f191660200182016040528015610fff576020820181803683370190505b5092506020830160005b828160ff16101561106e5760006110218b8b8461137e565b9050600061103e888460ff166028026038011c64ffffffffff1690565b905061104d826000838761146e565b6110578185611f5e565b93505050808061106690611f71565b915050611009565b50505b505093509350939050565b60606000603884901c64ffffffffff1661109f61109a85848461153a565b6115c8565b95945050505050565b61048b85856110b78487611648565b85611679565b60408051602081018490529081018290526000906060015b60408051601f1981840301815291905280516020909101207f86425bff6b57326c7859e89024fe4f238ca327a1ae4a230180dd2f0e88aaa7d9189392505050565b60006020821061113c5760208204840193506020828161113857611138611c5a565b0691505b508254600882021b602082900380841115611160576001850154600882021c821791505b509392505050565b604080516001808252818301909252606091600091906020808301908036833701905050905082816000815181106111a2576111a2611c02565b602090810291909101015260006111da7f746273746f726500000000000000000053746f7265486f6f6b730000000000008383611914565b90506111f16111ec826000845161153a565b61194e565b949350505050565b60008160ff168261120a8560581c90565b1660ff1614905092915050565b600082826040516020016110d5929190611f90565b82156112a657602083106112565760208304840193506020838161125257611252611c5a565b0692505b82156112a65760208390036000600019600885021c1990506008850281811c91508351811c9050811987541682821617875550818411611297575050610330565b50600194909401939182900391015b5b602082106112c85780518455600190930192601f19909101906020016112a7565b8115610330576000600019600884021c8554835182191691161785555050505050565b600060086001806112fe60026020611fcc565b6113089190611fcc565b6113129190611fcc565b61131c9190611fdf565b8260ff911c1692915050565b6000828260405160200161133d929190611f90565b60408051601f1981840301815291905280516020909101207f14e2fcc58e58e68ec7edc30c8d50dccc3ce2714a623ec81f46b6a63922d76569189392505050565b60008383604051602001611393929190611f90565b604051602081830303815290604052805190602001208260f81b7effffffffffffffffffffffffffffffffffffffffffffffffffffffffffffff19167f3b4102da22e32d82fc925482184f16c09fd4281692720b87d124aef6da48a0f1181860001c90505b9392505050565b6000600861140f60026020611fcc565b6114199190611fdf565b9190911c919050565b60608160000361144157506040805160208101909152600081526113f8565b600061144d8585611217565b905061109f8160008561195f565b60006113f861146a8484611328565b5490565b82156114f557602083106114985760208304840193506020838161149457611494611c5a565b0692505b82156114f55760208390036000818410156114bb5750600019600884021c6114c5565b50600019600882021c5b8554600886021b8184511682198216178452508184116114e6575050610330565b50600194909401939182900391015b5b602082106115175783548152600190930192601f19909101906020016114f6565b8115610330576000600019600884021c8251865482191691161782525050505050565b60008183118061154a5750835182115b15611587578383836040517f23230fa300000000000000000000000000000000000000000000000000000000815260040161024793929190611ff6565b602084016115958482611f5e565b905060006115a38585611fcc565b6fffffffffffffffffffffffffffffffff1660809290921b9190911795945050505050565b606060006115d68360801c90565b90506fffffffffffffffffffffffffffffffff83168067ffffffffffffffff81111561160457611604611ab4565b6040519080825280601f01601f19166020018201604052801561162e576020820181803683370190505b50925060208301611640838284611982565b505050919050565b600080805b8360ff168110156111605761166f60ff601b83900360080287901c1683611f5e565b915060010161164d565b7f6f74000000000000000000000000000000000000000000000000000000000000847fffff000000000000000000000000000000000000000000000000000000000000160361170357837f8c0b5119d4cec7b284c6b1b39252a03d1e2f2d7451a5895562524c113bb952be8484846040516116f69392919061201b565b60405180910390a2610330565b600061170f8585611217565b9050600061171c86611168565b905060005b81518110156117f157600082828151811061173e5761173e611c02565b6020026020010151905061176a6004826affffffffffffffffffffff19166111f990919063ffffffff16565b156117e8576040517f964f667d000000000000000000000000000000000000000000000000000000008152606082901c9063964f667d906117b5908b908b908b908b90600401612058565b600060405180830381600087803b1580156117cf57600080fd5b505af11580156117e3573d6000803e3d6000fd5b505050505b50600101611721565b50857f8c0b5119d4cec7b284c6b1b39252a03d1e2f2d7451a5895562524c113bb952be8686866040516118269392919061201b565b60405180910390a2611841828565ffffffffffff16856119cd565b60005b815181101561083857600082828151811061186157611861611c02565b6020026020010151905061188d6008826affffffffffffffffffffff19166111f990919063ffffffff16565b1561190b576040517fa8ba8721000000000000000000000000000000000000000000000000000000008152606082901c9063a8ba8721906118d8908b908b908b908b90600401612058565b600060405180830381600087803b1580156118f257600080fd5b505af1158015611906573d6000803e3d6000fd5b505050505b50600101611844565b60606111f161192485858561137e565b600061194985611934898961145b565b9060ff166028026038011c64ffffffffff1690565b61195f565b606060006113f883601560006119e3565b60405160208101601f19603f84840101166040528282526111608585858461146e565b5b602081106119a2578251825260209283019290910190601f1901611983565b806000036119af57505050565b6000600019600883021c905080835116811985511617835250505050565b6107b0838383516119de8560200190565b61122c565b606060006119f18560801c90565b90506fffffffffffffffffffffffffffffffff85166000858281611a1757611a17611c5a565b04905060405193506020840160208202810160405281855260005b82811015611a52578451871c825293870193602090910190600101611a32565b50505050509392505050565b600060208284031215611a7057600080fd5b81357fffffffff00000000000000000000000000000000000000000000000000000000811681146113f857600080fd5b803563ffffffff811681146104d957600080fd5b634e487b7160e01b600052604160045260246000fd5b604051601f8201601f1916810167ffffffffffffffff81118282101715611af357611af3611ab4565b604052919050565b600067ffffffffffffffff821115611b1557611b15611ab4565b50601f01601f191660200190565b600080600060608486031215611b3857600080fd5b611b4184611aa0565b9250611b4f60208501611aa0565b9150604084013567ffffffffffffffff811115611b6b57600080fd5b8401601f81018613611b7c57600080fd5b8035611b8f611b8a82611afb565b611aca565b818152876020838501011115611ba457600080fd5b816020840160208301376000602083830101528093505050509250925092565b634e487b7160e01b600052601160045260246000fd5b63ffffffff818116838216028082169190828114611bfa57611bfa611bc4565b505092915050565b634e487b7160e01b600052603260045260246000fd5b600381810b9083900b01637fffffff81137fffffffffffffffffffffffffffffffffffffffffffffffffffffffff800000008212171561018457610184611bc4565b634e487b7160e01b600052601260045260246000fd5b60008260030b80611c9157634e487b7160e01b600052601260045260246000fd5b808360030b0791505092915050565b60005b83811015611cbb578181015183820152602001611ca3565b50506000910152565b60008251611cd6818460208701611ca0565b9190910192915050565b60008151808452602080850194506020840160005b83811015611d1157815187529582019590820190600101611cf5565b509495945050505050565b60008151808452611d34816020860160208601611ca0565b601f01601f19169290920160200192915050565b85815260a060208201526000611d6160a0830187611ce0565b8281036040840152611d738187611d1c565b90508460608401528281036080840152611d8d8185611d1c565b98975050505050505050565b838152606060208201526000611db26060830185611ce0565b9050826040830152949350505050565b600082601f830112611dd357600080fd5b8151611de1611b8a82611afb565b818152846020838601011115611df657600080fd5b6111f1826020830160208701611ca0565b600080600060608486031215611e1c57600080fd5b835167ffffffffffffffff80821115611e3457600080fd5b611e4087838801611dc2565b9450602086015193506040860151915080821115611e5d57600080fd5b50611e6a86828701611dc2565b9150509250925092565b85815260a060208201526000611e8d60a0830187611ce0565b60ff861660408401528281036060840152611ea88186611d1c565b9150508260808301529695505050505050565b608081526000611ece6080830187611ce0565b8281036020840152611ee08187611d1c565b90508460408401528281036060840152611efa8185611d1c565b979650505050505050565b86815260c060208201526000611f1e60c0830188611ce0565b8281036040840152611f308188611d1c565b90508560608401528281036080840152611f4a8186611d1c565b9150508260a0830152979650505050505050565b8082018082111561018457610184611bc4565b600060ff821660ff8103611f8757611f87611bc4565b60010192915050565b8281526000602080830184516020860160005b82811015611fbf57815184529284019290840190600101611fa3565b5091979650505050505050565b8181038181111561018457610184611bc4565b808202811582820484141761018457610184611bc4565b6060815260006120096060830186611d1c565b60208301949094525060400152919050565b60608152600061202e6060830186611ce0565b65ffffffffffff85166020840152828103604084015261204e8185611d1c565b9695505050505050565b8481526080602082015260006120716080830186611ce0565b65ffffffffffff851660408401528281036060840152611efa8185611d1c56fea26469706673582212207da581bffef167802524ca4b5b9ae050361fcc31e51d2c245ea85e26493145a164736f6c63430008180033","linkReferences":{}},"methodIdentifiers":{"_msgSender()":"119df25f","_msgValue()":"45ec9354","_world()":"e1af802c","setMap(uint32,uint32,bytes)":"f2f6218a","supportsInterface(bytes4)":"01ffc9a7"},"id":97}