{"abi":[{"type":"function","name":"_msgSender","inputs":[],"outputs":[{"name":"sender","type":"address","internalType":"address"}],"stateMutability":"view"},{"type":"function","name":"_msgValue","inputs":[],"outputs":[{"name":"value","type":"uint256","internalType":"uint256"}],"stateMutability":"pure"},{"type":"function","name":"_world","inputs":[],"outputs":[{"name":"","type":"address","internalType":"address"}],"stateMutability":"view"},{"type":"function","name":"flee","inputs":[],"outputs":[],"stateMutability":"nonpayable"},{"type":"function","name":"supportsInterface","inputs":[{"name":"interfaceId","type":"bytes4","internalType":"bytes4"}],"outputs":[{"name":"","type":"bool","internalType":"bool"}],"stateMutability":"pure"},{"type":"function","name":"throwBall","inputs":[],"outputs":[],"stateMutability":"nonpayable"},{"type":"event","name":"Store_DeleteRecord","inputs":[{"name":"tableId","type":"bytes32","indexed":true,"internalType":"ResourceId"},{"name":"keyTuple","type":"bytes32[]","indexed":false,"internalType":"bytes32[]"}],"anonymous":false},{"type":"event","name":"Store_SetRecord","inputs":[{"name":"tableId","type":"bytes32","indexed":true,"internalType":"ResourceId"},{"name":"keyTuple","type":"bytes32[]","indexed":false,"internalType":"bytes32[]"},{"name":"staticData","type":"bytes","indexed":false,"internalType":"bytes"},{"name":"encodedLengths","type":"bytes32","indexed":false,"internalType":"EncodedLengths"},{"name":"dynamicData","type":"bytes","indexed":false,"internalType":"bytes"}],"anonymous":false},{"type":"event","name":"Store_SpliceStaticData","inputs":[{"name":"tableId","type":"bytes32","indexed":true,"internalType":"ResourceId"},{"name":"keyTuple","type":"bytes32[]","indexed":false,"internalType":"bytes32[]"},{"name":"start","type":"uint48","indexed":false,"internalType":"uint48"},{"name":"data","type":"bytes","indexed":false,"internalType":"bytes"}],"anonymous":false},{"type":"error","name":"Slice_OutOfBounds","inputs":[{"name":"data","type":"bytes","internalType":"bytes"},{"name":"start","type":"uint256","internalType":"uint256"},{"name":"end","type":"uint256","internalType":"uint256"}]}],"bytecode":{"object":"0x608060405234801561001057600080fd5b50612200806100206000396000f3fe608060405234801561001057600080fd5b50600436106100725760003560e01c806348b97ffd1161005057806348b97ffd146100df578063a4aaac64146100e9578063e1af802c146100f157600080fd5b806301ffc9a714610077578063119df25f1461009f57806345ec9354146100cc575b600080fd5b61008a610085366004611ca9565b6100f9565b60405190151581526020015b60405180910390f35b6100a7610192565b60405173ffffffffffffffffffffffffffffffffffffffff9091168152602001610096565b604051601f193601358152602001610096565b6100e76101a1565b005b6100e761025e565b6100a76103bf565b60007fffffffff0000000000000000000000000000000000000000000000000000000082167fb5dee12700000000000000000000000000000000000000000000000000000000148061018c57507fffffffff0000000000000000000000000000000000000000000000000000000082167f01ffc9a700000000000000000000000000000000000000000000000000000000145b92915050565b600061019c6103c9565b905090565b60006101c76101ae610192565b73ffffffffffffffffffffffffffffffffffffffff1690565b905060006101d4826103fb565b8051909150610244576040517f08c379a000000000000000000000000000000000000000000000000000000000815260206004820152601060248201527f6e6f7420696e20656e636f756e7465720000000000000000000000000000000060448201526064015b60405180910390fd5b61025181602001516104c3565b61025a8261052e565b5050565b600061026b6101ae610192565b90506000610278826103fb565b80519091506102e3576040517f08c379a000000000000000000000000000000000000000000000000000000000815260206004820152601060248201527f6e6f7420696e20656e636f756e74657200000000000000000000000000000000604482015260640161023b565b600082826020015183604001516001436102fd9190611d01565b60408051602081019590955284019290925260608301524060808201524460a082015260c00160408051601f1981840301815291905280516020909101209050610348600282611d2a565b6000036103765761035a836001610599565b610368826020015184610623565b6103718361052e565b505050565b600282604001511061039a5761038d836002610599565b61036882602001516104c3565b6103a5836000610599565b61037183836040015160016103ba9190611d3e565b6106d7565b600061019c61078b565b7fffffffffffffffffffffffffffffffffffffffffffffffffffffffffffffffcc36013560601c806103f85750335b90565b60408051606081018252600080825260208201819052818301819052825160018082528185019094529192909190816020016020820280368337019050509050828160008151811061044f5761044f611d67565b6020908102919091010152600080806104a87f74620000000000000000000000000000456e636f756e74657200000000000000857e41030001202000000000000000000000000000000000000000000000000000610795565b9250925092506104b983838361087f565b9695505050505050565b6040805160018082528183019092526000916020808301908036833701905050905081816000815181106104f9576104f9611d67565b602090810291909101015261025a7f746200000000000000000000000000004d6f6e73746572000000000000000000826108ba565b60408051600180825281830190925260009160208083019080368337019050509050818160008151811061056457610564611d67565b602090810291909101015261025a7f74620000000000000000000000000000456e636f756e74657200000000000000826108ba565b60006105a482610978565b6040805160018082528183019092529192506000916060918391906020808301908036833701905050905085816000815181106105e3576105e3611d67565b602090810291909101015261061b7f6f7400000000000000000000000000004d6f6e73746572436174636841747465828686866109a1565b505050505050565b60408051600180825281830190925260009160208083019080368337019050509050828160008151811061065957610659611d67565b6020026020010181815250506103717f746200000000000000000000000000004f776e6564427900000000000000000060001b826000856040516020016106a291815260200190565b60408051601f198184030181529190527e20010020000000000000000000000000000000000000000000000000000000610a70565b60408051600180825281830190925260009160208083019080368337019050509050828160008151811061070d5761070d611d67565b6020026020010181815250506103717f74620000000000000000000000000000456e636f756e7465720000000000000060001b8260028560405160200161075691815260200190565b60408051601f198184030181529190527e41030001202000000000000000000000000000000000000000000000000000610a70565b600061019c610b00565b60606000606060006107a5610b00565b90503073ffffffffffffffffffffffffffffffffffffffff8216036107db576107cf878787610b4c565b93509350935050610876565b6040517f419b58fd00000000000000000000000000000000000000000000000000000000815273ffffffffffffffffffffffffffffffffffffffff82169063419b58fd90610831908a908a908a90600401611db9565b600060405180830381865afa15801561084e573d6000803e3d6000fd5b505050506040513d6000823e601f3d908101601f191682016040526107cf9190810190611e84565b93509350939050565b60408051606081018252600080825260208201819052918101919091526108a584610c54565b60408401526020830152151581529392505050565b60006108c4610b00565b90503073ffffffffffffffffffffffffffffffffffffffff8216036108ed576103718383610c85565b6040517f505a181d00000000000000000000000000000000000000000000000000000000815273ffffffffffffffffffffffffffffffffffffffff82169063505a181d906109419086908690600401611ef1565b600060405180830381600087803b15801561095b57600080fd5b505af115801561096f573d6000803e3d6000fd5b50505050505050565b60608160405160200161098b9190611f0a565b6040516020818303038152906040529050919050565b60006109ab610b00565b90503073ffffffffffffffffffffffffffffffffffffffff8216036109dc576109d78686868686610c98565b61061b565b6040517f298314fb00000000000000000000000000000000000000000000000000000000815273ffffffffffffffffffffffffffffffffffffffff82169063298314fb90610a369089908990899089908990600401611f65565b600060405180830381600087803b158015610a5057600080fd5b505af1158015610a64573d6000803e3d6000fd5b50505050505050505050565b6000610a7a610b00565b90503073ffffffffffffffffffffffffffffffffffffffff821603610aa6576109d78686868686610cb5565b6040517f390baae000000000000000000000000000000000000000000000000000000000815273ffffffffffffffffffffffffffffffffffffffff82169063390baae090610a369089908990899089908990600401611fb6565b7f629a4c26e296b22a8e0856e9f6ecb2d1008d7e00081111962cd175fa7488e1755460009073ffffffffffffffffffffffffffffffffffffffff1680610b47573391505090565b919050565b6060600060606000610b5d85610cca565b9050610b6a878783610ced565b93506000610b7786610d31565b90508015610c4957610b898888610d6e565b935066ffffffffffffff841667ffffffffffffffff811115610bad57610bad611d51565b6040519080825280601f01601f191660200182016040528015610bd7576020820181803683370190505b5092506020830160005b828160ff161015610c46576000610bf98b8b84610d81565b90506000610c16888460ff166028026038011c64ffffffffff1690565b9050610c258260008387610e01565b610c2f8185611d3e565b935050508080610c3e90611ffd565b915050610be1565b50505b505093509350939050565b6000806000610c70610c6a856000016020015190565b60f81c90565b60218501516041909501519095909350915050565b61025a8282610c9385610ecc565b610f51565b610cae8585858585610ca98b610ecc565b611250565b5050505050565b610cae8585610cc48487611589565b856115c2565b60006008610cda60026020611d01565b610ce4919061201c565b9190911c919050565b606081600003610d0c5750604080516020810190915260008152610d2a565b6000610d18858561185d565b9050610d26816000856118b3565b9150505b9392505050565b60006008600180610d4460026020611d01565b610d4e9190611d01565b610d589190611d01565b610d62919061201c565b8260ff911c1692915050565b6000610d2a610d7d84846118d6565b5490565b60008383604051602001610d96929190612033565b604051602081830303815290604052805190602001208260f81b7effffffffffffffffffffffffffffffffffffffffffffffffffffffffffffff19167f3b4102da22e32d82fc925482184f16c09fd4281692720b87d124aef6da48a0f1181860001c90509392505050565b8215610e885760208310610e2b57602083048401935060208381610e2757610e27611d14565b0692505b8215610e88576020839003600081841015610e4e5750600019600884021c610e58565b50600019600882021c5b8554600886021b818451168219821617845250818411610e79575050610ec6565b50600194909401939182900391015b5b60208210610eaa5783548152600190930192601f1990910190602001610e89565b8115610ec65780518454600019600885021c9182169119161781525b50505050565b60007f8b9d8c8b908d9affffffffffffffffffab9e9d939a8d000000000000000000008201610f1b57507e60030220202000000000000000000000000000000000000000000000000000919050565b61018c610f487f746273746f72650000000000000000005461626c6573000000000000000000008461192c565b60206000611948565b7f6f74000000000000000000000000000000000000000000000000000000000000837fffff0000000000000000000000000000000000000000000000000000000000001603610fd757827f0e1f72f429eb97e64878619984a91e687ae91610348b9ff4216782cc96e49d0783604051610fca919061206f565b60405180910390a2505050565b6000610fe284611999565b905060005b81518110156110b557600082828151811061100457611004611d67565b602002602001015190506110306040826affffffffffffffffffffff1916611a2a90919063ffffffff16565b156110ac576040517f9faeaf45000000000000000000000000000000000000000000000000000000008152606082901c90639faeaf459061107990899089908990600401611db9565b600060405180830381600087803b15801561109357600080fd5b505af11580156110a7573d6000803e3d6000fd5b505050505b50600101610fe7565b50837f0e1f72f429eb97e64878619984a91e687ae91610348b9ff4216782cc96e49d07846040516110e6919061206f565b60405180910390a260006110fa858561185d565b905061115381600061110b86610cca565b67ffffffffffffffff81111561112357611123611d51565b6040519080825280601f01601f19166020018201604052801561114d576020820181803683370190505b50611a48565b600061115e84610d31565b111561117f57600061117086866118d6565b905061117d816020611a5e565b505b60005b825181101561061b57600083828151811061119f5761119f611d67565b602002602001015190506111cb6080826affffffffffffffffffffff1916611a2a90919063ffffffff16565b15611247576040517f83b5c95b000000000000000000000000000000000000000000000000000000008152606082901c906383b5c95b90611214908a908a908a90600401611db9565b600060405180830381600087803b15801561122e57600080fd5b505af1158015611242573d6000803e3d6000fd5b505050505b50600101611182565b7f6f74000000000000000000000000000000000000000000000000000000000000867fffff00000000000000000000000000000000000000000000000000000000000016036112dc57857f8dbb3a9672eebfd3773e72dd9c102393436816d832c7ba9e1e1ac8fcadcac7a9868686866040516112cf9493929190612082565b60405180910390a261061b565b60006112e787611999565b905060005b81518110156113c057600082828151811061130957611309611d67565b602002602001015190506113356001826affffffffffffffffffffff1916611a2a90919063ffffffff16565b156113b7576040517f57066c9c000000000000000000000000000000000000000000000000000000008152606082901c906357066c9c90611384908c908c908c908c908c908c906004016120cc565b600060405180830381600087803b15801561139e57600080fd5b505af11580156113b2573d6000803e3d6000fd5b505050505b506001016112ec565b50867f8dbb3a9672eebfd3773e72dd9c102393436816d832c7ba9e1e1ac8fcadcac7a9878787876040516113f79493929190612082565b60405180910390a2600061140b888861185d565b90506000602087019050611423826000895184611a9b565b600061142e85610d31565b11156114b25760006114408a8a6118d6565b878155905060208601915060008060005b61145a88610d31565b8160ff1610156114ad5761146f8d8d83610d81565b925061148a8a8260ff166028026038011c64ffffffffff1690565b91506114998360008488611a9b565b6114a38286611d3e565b9450600101611451565b505050505b60005b8351811015610a645760008482815181106114d2576114d2611d67565b602002602001015190506114fe6002826affffffffffffffffffffff1916611a2a90919063ffffffff16565b15611580576040517f5b28cdaf000000000000000000000000000000000000000000000000000000008152606082901c90635b28cdaf9061154d908e908e908e908e908e908e906004016120cc565b600060405180830381600087803b15801561156757600080fd5b505af115801561157b573d6000803e3d6000fd5b505050505b506001016114b5565b600080805b8360ff168110156115ba576115b060ff601b83900360080287901c1683611d3e565b915060010161158e565b509392505050565b7f6f74000000000000000000000000000000000000000000000000000000000000847fffff000000000000000000000000000000000000000000000000000000000000160361164c57837f8c0b5119d4cec7b284c6b1b39252a03d1e2f2d7451a5895562524c113bb952be84848460405161163f93929190612125565b60405180910390a2610ec6565b6000611658858561185d565b9050600061166586611999565b905060005b815181101561173a57600082828151811061168757611687611d67565b602002602001015190506116b36004826affffffffffffffffffffff1916611a2a90919063ffffffff16565b15611731576040517f964f667d000000000000000000000000000000000000000000000000000000008152606082901c9063964f667d906116fe908b908b908b908b90600401612158565b600060405180830381600087803b15801561171857600080fd5b505af115801561172c573d6000803e3d6000fd5b505050505b5060010161166a565b50857f8c0b5119d4cec7b284c6b1b39252a03d1e2f2d7451a5895562524c113bb952be86868660405161176f93929190612125565b60405180910390a261178a828565ffffffffffff1685611a48565b60005b815181101561096f5760008282815181106117aa576117aa611d67565b602002602001015190506117d66008826affffffffffffffffffffff1916611a2a90919063ffffffff16565b15611854576040517fa8ba8721000000000000000000000000000000000000000000000000000000008152606082901c9063a8ba872190611821908b908b908b908b90600401612158565b600060405180830381600087803b15801561183b57600080fd5b505af115801561184f573d6000803e3d6000fd5b505050505b5060010161178d565b60008282604051602001611872929190612033565b60408051601f1981840301815291905280516020909101207f86425bff6b57326c7859e89024fe4f238ca327a1ae4a230180dd2f0e88aaa7d9189392505050565b60405160208101601f19603f84840101166040528282526115ba85858584610e01565b600082826040516020016118eb929190612033565b60408051601f1981840301815291905280516020909101207f14e2fcc58e58e68ec7edc30c8d50dccc3ce2714a623ec81f46b6a63922d76569189392505050565b6040805160208101849052908101829052600090606001611872565b60006020821061196e5760208204840193506020828161196a5761196a611d14565b0691505b508254600882021b6020829003808411156115ba576001850154600882021c82179150509392505050565b604080516001808252818301909252606091600091906020808301908036833701905050905082816000815181106119d3576119d3611d67565b60209081029190910101526000611a0b7f746273746f726500000000000000000053746f7265486f6f6b730000000000008383611b5a565b9050611a22611a1d8260008451611b94565b611c22565b949350505050565b60008160ff1682611a3b8560581c90565b1660ff1614905092915050565b61037183838351611a598560200190565b611a9b565b60006020611a6d83601f611d3e565b611a779190612191565b611a819084611d3e565b90505b808310156103715760008355600183019250611a84565b8215611b155760208310611ac557602083048401935060208381611ac157611ac1611d14565b0692505b8215611b155760208390036000600019600885021c1990506008850281811c91508351811c9050811987541682821617875550818411611b06575050610ec6565b50600194909401939182900391015b5b60208210611b375780518455600190930192601f1990910190602001611b16565b8115610ec6576000600019600884021c8554835182191691161785555050505050565b6060611a22611b6a858585610d81565b6000611b8f85611b7a8989610d6e565b9060ff166028026038011c64ffffffffff1690565b6118b3565b600081831180611ba45750835182115b15611be1578383836040517f23230fa300000000000000000000000000000000000000000000000000000000815260040161023b939291906121a5565b60208401611bef8482611d3e565b90506000611bfd8585611d01565b6fffffffffffffffffffffffffffffffff1660809290921b9190911795945050505050565b60606000610d2a836015600060606000611c3c8560801c90565b90506fffffffffffffffffffffffffffffffff85166000858281611c6257611c62611d14565b04905060405193506020840160208202810160405281855260005b82811015611c9d578451871c825293870193602090910190600101611c7d565b50505050509392505050565b600060208284031215611cbb57600080fd5b81357fffffffff0000000000000000000000000000000000000000000000000000000081168114610d2a57600080fd5b634e487b7160e01b600052601160045260246000fd5b8181038181111561018c5761018c611ceb565b634e487b7160e01b600052601260045260246000fd5b600082611d3957611d39611d14565b500690565b8082018082111561018c5761018c611ceb565b634e487b7160e01b600052604160045260246000fd5b634e487b7160e01b600052603260045260246000fd5b60008151808452602080850194506020840160005b83811015611dae57815187529582019590820190600101611d92565b509495945050505050565b838152606060208201526000611dd26060830185611d7d565b9050826040830152949350505050565b60005b83811015611dfd578181015183820152602001611de5565b50506000910152565b600082601f830112611e1757600080fd5b815167ffffffffffffffff80821115611e3257611e32611d51565b604051601f8301601f19908116603f01168101908282118183101715611e5a57611e5a611d51565b81604052838152866020858801011115611e7357600080fd5b6104b9846020830160208901611de2565b600080600060608486031215611e9957600080fd5b835167ffffffffffffffff80821115611eb157600080fd5b611ebd87838801611e06565b9450602086015193506040860151915080821115611eda57600080fd5b50611ee786828701611e06565b9150509250925092565b828152604060208201526000611a226040830184611d7d565b600060038310611f2a57634e487b7160e01b600052602160045260246000fd5b5060f89190911b815260010190565b60008151808452611f51816020860160208601611de2565b601f01601f19169290920160200192915050565b85815260a060208201526000611f7e60a0830187611d7d565b8281036040840152611f908187611f39565b90508460608401528281036080840152611faa8185611f39565b98975050505050505050565b85815260a060208201526000611fcf60a0830187611d7d565b60ff861660408401528281036060840152611fea8186611f39565b9150508260808301529695505050505050565b600060ff821660ff810361201357612013611ceb565b60010192915050565b808202811582820484141761018c5761018c611ceb565b8281526000602080830184516020860160005b8281101561206257815184529284019290840190600101612046565b5091979650505050505050565b602081526000610d2a6020830184611d7d565b6080815260006120956080830187611d7d565b82810360208401526120a78187611f39565b905084604084015282810360608401526120c18185611f39565b979650505050505050565b86815260c0602082015260006120e560c0830188611d7d565b82810360408401526120f78188611f39565b905085606084015282810360808401526121118186611f39565b9150508260a0830152979650505050505050565b6060815260006121386060830186611d7d565b65ffffffffffff8516602084015282810360408401526104b98185611f39565b8481526080602082015260006121716080830186611d7d565b65ffffffffffff8516604084015282810360608401526120c18185611f39565b6000826121a0576121a0611d14565b500490565b6060815260006121b86060830186611f39565b6020830194909452506040015291905056fea2646970667358221220aa7134b7eb30bf5677cde9c082f31515f3b905f4b33ae50c2cc66903e1ca70ee64736f6c63430008180033","linkReferences":{}},"methodIdentifiers":{"_msgSender()":"119df25f","_msgValue()":"45ec9354","_world()":"e1af802c","flee()":"48b97ffd","supportsInterface(bytes4)":"01ffc9a7","throwBall()":"a4aaac64"},"id":95}