{"abi":[{"type":"function","name":"_msgSender","inputs":[],"outputs":[{"name":"sender","type":"address","internalType":"address"}],"stateMutability":"view"},{"type":"function","name":"_msgValue","inputs":[],"outputs":[{"name":"value","type":"uint256","internalType":"uint256"}],"stateMutability":"pure"},{"type":"function","name":"_world","inputs":[],"outputs":[{"name":"","type":"address","internalType":"address"}],"stateMutability":"view"},{"type":"function","name":"nextPage","inputs":[],"outputs":[],"stateMutability":"nonpayable"},{"type":"function","name":"prevPage","inputs":[],"outputs":[],"stateMutability":"nonpayable"},{"type":"function","name":"supportsInterface","inputs":[{"name":"interfaceId","type":"bytes4","internalType":"bytes4"}],"outputs":[{"name":"","type":"bool","internalType":"bool"}],"stateMutability":"pure"},{"type":"event","name":"Store_SpliceStaticData","inputs":[{"name":"tableId","type":"bytes32","indexed":true,"internalType":"ResourceId"},{"name":"keyTuple","type":"bytes32[]","indexed":false,"internalType":"bytes32[]"},{"name":"start","type":"uint48","indexed":false,"internalType":"uint48"},{"name":"data","type":"bytes","indexed":false,"internalType":"bytes"}],"anonymous":false},{"type":"error","name":"Slice_OutOfBounds","inputs":[{"name":"data","type":"bytes","internalType":"bytes"},{"name":"start","type":"uint256","internalType":"uint256"},{"name":"end","type":"uint256","internalType":"uint256"}]}],"bytecode":{"object":"0x608060405234801561001057600080fd5b5061113d806100206000396000f3fe608060405234801561001057600080fd5b50600436106100725760003560e01c80633fa473b8116100505780633fa473b8146100d657806345ec9354146100de578063e1af802c146100f157600080fd5b806301ffc9a714610077578063087e6dc81461009f578063119df25f146100a9575b600080fd5b61008a610085366004610e48565b6100f9565b60405190151581526020015b60405180910390f35b6100a7610192565b005b6100b16101ed565b60405173ffffffffffffffffffffffffffffffffffffffff9091168152602001610096565b6100a76101fc565b604051601f193601358152602001610096565b6100b161022e565b60007fffffffff0000000000000000000000000000000000000000000000000000000082167fb5dee12700000000000000000000000000000000000000000000000000000000148061018c57507fffffffff0000000000000000000000000000000000000000000000000000000082167f01ffc9a700000000000000000000000000000000000000000000000000000000145b92915050565b60006101b861019f6101ed565b73ffffffffffffffffffffffffffffffffffffffff1690565b905060006101c582610238565b90506101d3600a6001610ea0565b6101dd9082610ed8565b90506101e982826102d1565b5050565b60006101f761038a565b905090565b600061020961019f6101ed565b9050600061021682610238565b9050610224600a6001610ea0565b6101dd9082610eeb565b60006101f76103bc565b60408051600180825281830190925260009182919060208083019080368337019050509050828160008151811061027157610271610efe565b602090810291909101015260006102c97f746200000000000000000000000000005061676500000000000000000000000083837e200100200000000000000000000000000000000000000000000000000000006103c6565b949350505050565b60408051600180825281830190925260009160208083019080368337019050509050828160008151811061030757610307610efe565b6020026020010181815250506103857f746200000000000000000000000000005061676500000000000000000000000060001b8260008560405160200161035091815260200190565b60408051601f198184030181529190527e2001002000000000000000000000000000000000000000000000000000000061049d565b505050565b7fffffffffffffffffffffffffffffffffffffffffffffffffffffffffffffffcc36013560601c806103b95750335b90565b60006101f761056d565b6000806103d161056d565b90503073ffffffffffffffffffffffffffffffffffffffff821603610404576103fc868686866105b9565b9150506102c9565b6040517f8c364d5900000000000000000000000000000000000000000000000000000000815273ffffffffffffffffffffffffffffffffffffffff821690638c364d599061045c908990899089908990600401610f50565b602060405180830381865afa158015610479573d6000803e3d6000fd5b505050506040513d601f19601f820116820180604052508101906103fc9190610f7f565b60006104a761056d565b90503073ffffffffffffffffffffffffffffffffffffffff8216036104d8576104d386868686866105ef565b610565565b6040517f390baae000000000000000000000000000000000000000000000000000000000815273ffffffffffffffffffffffffffffffffffffffff82169063390baae0906105329089908990899089908990600401610fde565b600060405180830381600087803b15801561054c57600080fd5b505af1158015610560573d6000803e3d6000fd5b505050505b505050505050565b7f629a4c26e296b22a8e0856e9f6ecb2d1008d7e00081111962cd175fa7488e1755460009073ffffffffffffffffffffffffffffffffffffffff16806105b4573391505090565b919050565b60006105e66105c8868661060b565b60ff858116601b0360080285901c166105e18587610661565b61069a565b95945050505050565b61060485856105fe8487610661565b856106eb565b5050505050565b60008282604051602001610620929190611025565b60408051601f1981840301815291905280516020909101207f86425bff6b57326c7859e89024fe4f238ca327a1ae4a230180dd2f0e88aaa7d9189392505050565b600080805b8360ff168110156106925761068860ff601b83900360080287901c1683610eeb565b9150600101610666565b509392505050565b6000602082106106c0576020820484019350602082816106bc576106bc610e8a565b0691505b508254600882021b602082900380841115610692576001850154600882021c82179150509392505050565b7f6f74000000000000000000000000000000000000000000000000000000000000847fffff000000000000000000000000000000000000000000000000000000000000160361077557837f8c0b5119d4cec7b284c6b1b39252a03d1e2f2d7451a5895562524c113bb952be84848460405161076893929190611061565b60405180910390a261098a565b6000610781858561060b565b9050600061078e86610990565b905060005b81518110156108635760008282815181106107b0576107b0610efe565b602002602001015190506107dc6004826affffffffffffffffffffff1916610a1990919063ffffffff16565b1561085a576040517f964f667d000000000000000000000000000000000000000000000000000000008152606082901c9063964f667d90610827908b908b908b908b9060040161109e565b600060405180830381600087803b15801561084157600080fd5b505af1158015610855573d6000803e3d6000fd5b505050505b50600101610793565b50857f8c0b5119d4cec7b284c6b1b39252a03d1e2f2d7451a5895562524c113bb952be86868660405161089893929190611061565b60405180910390a26108b3828565ffffffffffff1685610a37565b60005b81518110156109865760008282815181106108d3576108d3610efe565b602002602001015190506108ff6008826affffffffffffffffffffff1916610a1990919063ffffffff16565b1561097d576040517fa8ba8721000000000000000000000000000000000000000000000000000000008152606082901c9063a8ba87219061094a908b908b908b908b9060040161109e565b600060405180830381600087803b15801561096457600080fd5b505af1158015610978573d6000803e3d6000fd5b505050505b506001016108b6565b5050505b50505050565b604080516001808252818301909252606091600091906020808301908036833701905050905082816000815181106109ca576109ca610efe565b60209081029190910101526000610a027f746273746f726500000000000000000053746f7265486f6f6b730000000000008383610a4d565b90506102c9610a148260008451610a87565b610b1e565b60008160ff1682610a2a8560581c90565b1660ff1614905092915050565b61038583838351610a488560200190565b610b36565b60606102c9610a5d858585610bf5565b6000610a8285610a6d8989610c75565b9060ff166028026038011c64ffffffffff1690565b610c88565b600081831180610a975750835182115b15610add578383836040517f23230fa3000000000000000000000000000000000000000000000000000000008152600401610ad4939291906110e2565b60405180910390fd5b60208401610aeb8482610eeb565b90506000610af98585610ed8565b6fffffffffffffffffffffffffffffffff1660809290921b9190911795945050505050565b60606000610b2f8360156000610cab565b9392505050565b8215610bb05760208310610b6057602083048401935060208381610b5c57610b5c610e8a565b0692505b8215610bb05760208390036000600019600885021c1990506008850281811c91508351811c9050811987541682821617875550818411610ba157505061098a565b50600194909401939182900391015b5b60208210610bd25780518455600190930192601f1990910190602001610bb1565b811561098a576000600019600884021c8554835182191691161785555050505050565b60008383604051602001610c0a929190611025565b604051602081830303815290604052805190602001208260f81b7effffffffffffffffffffffffffffffffffffffffffffffffffffffffffffff19167f3b4102da22e32d82fc925482184f16c09fd4281692720b87d124aef6da48a0f1181860001c90509392505050565b6000610b2f610c848484610d26565b5490565b60405160208101601f19603f848401011660405282825261069285858584610d7c565b60606000610cb98560801c90565b90506fffffffffffffffffffffffffffffffff85166000858281610cdf57610cdf610e8a565b04905060405193506020840160208202810160405281855260005b82811015610d1a578451871c825293870193602090910190600101610cfa565b50505050509392505050565b60008282604051602001610d3b929190611025565b60408051601f1981840301815291905280516020909101207f14e2fcc58e58e68ec7edc30c8d50dccc3ce2714a623ec81f46b6a63922d76569189392505050565b8215610e035760208310610da657602083048401935060208381610da257610da2610e8a565b0692505b8215610e03576020839003600081841015610dc95750600019600884021c610dd3565b50600019600882021c5b8554600886021b818451168219821617845250818411610df457505061098a565b50600194909401939182900391015b5b60208210610e255783548152600190930192601f1990910190602001610e04565b811561098a576000600019600884021c8251865482191691161782525050505050565b600060208284031215610e5a57600080fd5b81357fffffffff0000000000000000000000000000000000000000000000000000000081168114610b2f57600080fd5b634e487b7160e01b600052601260045260246000fd5b600082610ebd57634e487b7160e01b600052601260045260246000fd5b500690565b634e487b7160e01b600052601160045260246000fd5b8181038181111561018c5761018c610ec2565b8082018082111561018c5761018c610ec2565b634e487b7160e01b600052603260045260246000fd5b60008151808452602080850194506020840160005b83811015610f4557815187529582019590820190600101610f29565b509495945050505050565b848152608060208201526000610f696080830186610f14565b60ff949094166040830152506060015292915050565b600060208284031215610f9157600080fd5b5051919050565b6000815180845260005b81811015610fbe57602081850181015186830182015201610fa2565b506000602082860101526020601f19601f83011685010191505092915050565b85815260a060208201526000610ff760a0830187610f14565b60ff8616604084015282810360608401526110128186610f98565b9150508260808301529695505050505050565b8281526000602080830184516020860160005b8281101561105457815184529284019290840190600101611038565b5091979650505050505050565b6060815260006110746060830186610f14565b65ffffffffffff8516602084015282810360408401526110948185610f98565b9695505050505050565b8481526080602082015260006110b76080830186610f14565b65ffffffffffff8516604084015282810360608401526110d78185610f98565b979650505050505050565b6060815260006110f56060830186610f98565b6020830194909452506040015291905056fea2646970667358221220b26965dc93f803995bf1e2c13b477b46a8f0ada118a6f16486e608f14286d8a064736f6c63430008180033","linkReferences":{}},"methodIdentifiers":{"_msgSender()":"119df25f","_msgValue()":"45ec9354","_world()":"e1af802c","nextPage()":"3fa473b8","prevPage()":"087e6dc8","supportsInterface(bytes4)":"01ffc9a7"},"id":89}