{"abi":[{"type":"function","name":"_msgSender","inputs":[],"outputs":[{"name":"sender","type":"address","internalType":"address"}],"stateMutability":"view"},{"type":"function","name":"_msgValue","inputs":[],"outputs":[{"name":"value","type":"uint256","internalType":"uint256"}],"stateMutability":"pure"},{"type":"function","name":"_world","inputs":[],"outputs":[{"name":"","type":"address","internalType":"address"}],"stateMutability":"view"},{"type":"function","name":"move","inputs":[{"name":"direction","type":"uint8","internalType":"enum Direction"}],"outputs":[],"stateMutability":"nonpayable"},{"type":"function","name":"supportsInterface","inputs":[{"name":"interfaceId","type":"bytes4","internalType":"bytes4"}],"outputs":[{"name":"","type":"bool","internalType":"bool"}],"stateMutability":"pure"},{"type":"event","name":"Store_SetRecord","inputs":[{"name":"tableId","type":"bytes32","indexed":true,"internalType":"ResourceId"},{"name":"keyTuple","type":"bytes32[]","indexed":false,"internalType":"bytes32[]"},{"name":"staticData","type":"bytes","indexed":false,"internalType":"bytes"},{"name":"encodedLengths","type":"bytes32","indexed":false,"internalType":"EncodedLengths"},{"name":"dynamicData","type":"bytes","indexed":false,"internalType":"bytes"}],"anonymous":false},{"type":"event","name":"Store_SpliceStaticData","inputs":[{"name":"tableId","type":"bytes32","indexed":true,"internalType":"ResourceId"},{"name":"keyTuple","type":"bytes32[]","indexed":false,"internalType":"bytes32[]"},{"name":"start","type":"uint48","indexed":false,"internalType":"uint48"},{"name":"data","type":"bytes","indexed":false,"internalType":"bytes"}],"anonymous":false},{"type":"error","name":"Slice_OutOfBounds","inputs":[{"name":"data","type":"bytes","internalType":"bytes"},{"name":"start","type":"uint256","internalType":"uint256"},{"name":"end","type":"uint256","internalType":"uint256"}]}],"bytecode":{"object":"0x608060405234801561001057600080fd5b50612288806100206000396000f3fe608060405234801561001057600080fd5b50600436106100675760003560e01c806345ec93541161005057806345ec9354146100c157806370e87aaf146100d4578063e1af802c146100e957600080fd5b806301ffc9a71461006c578063119df25f14610094575b600080fd5b61007f61007a366004611c89565b6100f1565b60405190151581526020015b60405180910390f35b61009c61018a565b60405173ffffffffffffffffffffffffffffffffffffffff909116815260200161008b565b604051601f19360135815260200161008b565b6100e76100e2366004611ccb565b610199565b005b61009c6105b7565b60007fffffffff0000000000000000000000000000000000000000000000000000000082167fb5dee12700000000000000000000000000000000000000000000000000000000148061018457507fffffffff0000000000000000000000000000000000000000000000000000000082167f01ffc9a700000000000000000000000000000000000000000000000000000000145b92915050565b60006101946105c1565b905090565b60006101bf6101a661018a565b73ffffffffffffffffffffffffffffffffffffffff1690565b90506101ca816105f3565b61021b5760405162461bcd60e51b815260206004820152600b60248201527f63616e6e6f74206d6f766500000000000000000000000000000000000000000060448201526064015b60405180910390fd5b600080600061022984610698565b92509250925060008061023b86610751565b909250905061024b600286611d02565b63ffffffff168263ffffffff1614801561027a575061026b600185611d02565b63ffffffff168163ffffffff16145b80156102975750600287600381111561029557610295611d26565b145b156102bb576102a7866000610804565b6102b28660016108c2565b50505050505050565b60008760038111156102cf576102cf611d26565b03610339578060030b6000036103275760405162461bcd60e51b815260206004820152601160248201527f63616e6e6f74206d6f7665206e6f7274680000000000000000000000000000006044820152606401610212565b610332600182611d3c565b90506104c0565b600187600381111561034d5761034d611d26565b036103c35761035d600186611d3c565b60030b8260030b036103b15760405162461bcd60e51b815260206004820152601060248201527f63616e6e6f74206d6f76652065617374000000000000000000000000000000006044820152606401610212565b6103bc600183611d63565b91506104c0565b60028760038111156103d7576103d7611d26565b03610446576103e7600185611d3c565b60030b8160030b0361043b5760405162461bcd60e51b815260206004820152601160248201527f63616e6e6f74206d6f766520736f7574680000000000000000000000000000006044820152606401610212565b610332600182611d63565b600387600381111561045a5761045a611d26565b036104c0578160030b6000036104b25760405162461bcd60e51b815260206004820152601060248201527f63616e6e6f74206d6f76652077657374000000000000000000000000000000006044820152606401610212565b6104bd600183611d3c565b91505b846104cb8184611d63565b6104d59190611da0565b9150836104e28183611d63565b6104ec9190611da0565b905060008361050463ffffffff808916908516611dd0565b6105149063ffffffff8616611de7565b8151811061052457610524611dfa565b016020015160f81c905080156105a25760405162461bcd60e51b815260206004820152602560248201527f63616e6e6f74206d6f7665206f6e746f206e6f6e2d77616c6b61626c6520746560448201527f727261696e0000000000000000000000000000000000000000000000000000006064820152608401610212565b6105ad878484610946565b5050505050505050565b60006101946109e0565b7fffffffffffffffffffffffffffffffffffffffffffffffffffffffffffffffcc36013560601c806105f05750335b90565b60408051600180825281830190925260009182919060208083019080368337019050509050828160008151811061062c5761062c611dfa565b602090810291909101015260006106847f746200000000000000000000000000004d6f7661626c6500000000000000000083837e010100010000000000000000000000000000000000000000000000000000006109ea565b90506106908160f81c90565b949350505050565b60408051600180825281830190925260009182916060918391906020808301908036833701905050905084816000815181106106d6576106d6611dfa565b60209081029190910101526000808061072f7f746200000000000000000000000000004d6170436f6e66696700000000000000857e08020104040000000000000000000000000000000000000000000000000000610ac1565b925092509250610740838383610bab565b965096509650505050509193909250565b6040805160018082528183019092526000918291829160208083019080368337019050509050838160008151811061078b5761078b611dfa565b6020908102919091010152600080806107e47f74620000000000000000000000000000506f736974696f6e0000000000000000857e08020004040000000000000000000000000000000000000000000000000000610ac1565b5050602081015160249091015160e091821c99911c975095505050505050565b60408051600180825281830190925260009160208083019080368337019050509050828160008151811061083a5761083a611dfa565b6020026020010181815250506108bd7f746200000000000000000000000000004d6f7661626c6500000000000000000060001b8260008560405160200161088891151560f81b815260010190565b60408051601f198184030181529190527e01010001000000000000000000000000000000000000000000000000000000610be4565b505050565b6040805160018082528183019092526000916020808301908036833701905050905082816000815181106108f8576108f8611dfa565b6020026020010181815250506108bd7f7462000000000000000000000000000057696e6e65720000000000000000000060001b8260008560405160200161088891151560f81b815260010190565b6040805160e084811b6020808401919091529084901b602483015282516008818403018152600160288401818152606885019095529093600093606093859391604801908036833701905050905086816000815181106109a8576109a8611dfa565b60209081029190910101526102b27f74620000000000000000000000000000506f736974696f6e000000000000000082868686610cb4565b6000610194610d44565b6000806109f5610d44565b90503073ffffffffffffffffffffffffffffffffffffffff821603610a2857610a2086868686610d90565b915050610690565b6040517f8c364d5900000000000000000000000000000000000000000000000000000000815273ffffffffffffffffffffffffffffffffffffffff821690638c364d5990610a80908990899089908990600401611e62565b602060405180830381865afa158015610a9d573d6000803e3d6000fd5b505050506040513d601f19601f82011682018060405250810190610a209190611e91565b6060600060606000610ad1610d44565b90503073ffffffffffffffffffffffffffffffffffffffff821603610b0757610afb878787610dc6565b93509350935050610ba2565b6040517f419b58fd00000000000000000000000000000000000000000000000000000000815273ffffffffffffffffffffffffffffffffffffffff82169063419b58fd90610b5d908a908a908a90600401611eaa565b600060405180830381865afa158015610b7a573d6000803e3d6000fd5b505050506040513d6000823e601f3d908101601f19168201604052610afb9190810190611f7f565b93509350939050565b6000806060610bca86602081015160249091015160e091821c92911c90565b9093509150610bd98585610ece565b905093509350939050565b6000610bee610d44565b90503073ffffffffffffffffffffffffffffffffffffffff821603610c1f57610c1a8686868686610ef1565b610cac565b6040517f390baae000000000000000000000000000000000000000000000000000000000815273ffffffffffffffffffffffffffffffffffffffff82169063390baae090610c799089908990899089908990600401612018565b600060405180830381600087803b158015610c9357600080fd5b505af1158015610ca7573d6000803e3d6000fd5b505050505b505050505050565b6000610cbe610d44565b90503073ffffffffffffffffffffffffffffffffffffffff821603610cea57610c1a8686868686610f0d565b6040517f298314fb00000000000000000000000000000000000000000000000000000000815273ffffffffffffffffffffffffffffffffffffffff82169063298314fb90610c79908990899089908990899060040161205f565b7f629a4c26e296b22a8e0856e9f6ecb2d1008d7e00081111962cd175fa7488e1755460009073ffffffffffffffffffffffffffffffffffffffff1680610d8b573391505090565b919050565b6000610dbd610d9f8686610f23565b60ff858116601b0360080285901c16610db88587610f79565b610fb2565b95945050505050565b6060600060606000610dd785611003565b9050610de4878783611026565b93506000610df18661106a565b90508015610ec357610e0388886110a7565b935066ffffffffffffff841667ffffffffffffffff811115610e2757610e27611e10565b6040519080825280601f01601f191660200182016040528015610e51576020820181803683370190505b5092506020830160005b828160ff161015610ec0576000610e738b8b846110ba565b90506000610e90888460ff166028026038011c64ffffffffff1690565b9050610e9f826000838761113a565b610ea98185611de7565b935050508080610eb8906120b0565b915050610e5b565b50505b505093509350939050565b60606000603884901c64ffffffffff16610dbd610eec858484611205565b611293565b610f068585610f008487610f79565b85611313565b5050505050565b610f068585858585610f1e8b6115ae565b611633565b60008282604051602001610f389291906120cf565b60408051601f1981840301815291905280516020909101207f86425bff6b57326c7859e89024fe4f238ca327a1ae4a230180dd2f0e88aaa7d9189392505050565b600080805b8360ff16811015610faa57610fa060ff601b83900360080287901c1683611de7565b9150600101610f7e565b509392505050565b600060208210610fd857602082048401935060208281610fd457610fd4611d8a565b0691505b508254600882021b602082900380841115610faa576001850154600882021c82179150509392505050565b600060086110136002602061210b565b61101d9190611dd0565b9190911c919050565b6060816000036110455750604080516020810190915260008152611063565b60006110518585610f23565b905061105f8160008561196c565b9150505b9392505050565b6000600860018061107d6002602061210b565b611087919061210b565b611091919061210b565b61109b9190611dd0565b8260ff911c1692915050565b60006110636110b6848461198f565b5490565b600083836040516020016110cf9291906120cf565b604051602081830303815290604052805190602001208260f81b7effffffffffffffffffffffffffffffffffffffffffffffffffffffffffffff19167f3b4102da22e32d82fc925482184f16c09fd4281692720b87d124aef6da48a0f1181860001c90509392505050565b82156111c157602083106111645760208304840193506020838161116057611160611d8a565b0692505b82156111c15760208390036000818410156111875750600019600884021c611191565b50600019600882021c5b8554600886021b8184511682198216178452508184116111b25750506111ff565b50600194909401939182900391015b5b602082106111e35783548152600190930192601f19909101906020016111c2565b81156111ff5780518454600019600885021c9182169119161781525b50505050565b6000818311806112155750835182115b15611252578383836040517f23230fa30000000000000000000000000000000000000000000000000000000081526004016102129392919061211e565b602084016112608482611de7565b9050600061126e858561210b565b6fffffffffffffffffffffffffffffffff1660809290921b9190911795945050505050565b606060006112a18360801c90565b90506fffffffffffffffffffffffffffffffff83168067ffffffffffffffff8111156112cf576112cf611e10565b6040519080825280601f01601f1916602001820160405280156112f9576020820181803683370190505b5092506020830161130b8382846119e5565b505050919050565b7f6f74000000000000000000000000000000000000000000000000000000000000847fffff000000000000000000000000000000000000000000000000000000000000160361139d57837f8c0b5119d4cec7b284c6b1b39252a03d1e2f2d7451a5895562524c113bb952be84848460405161139093929190612143565b60405180910390a26111ff565b60006113a98585610f23565b905060006113b686611a30565b905060005b815181101561148b5760008282815181106113d8576113d8611dfa565b602002602001015190506114046004826affffffffffffffffffffff1916611ab990919063ffffffff16565b15611482576040517f964f667d000000000000000000000000000000000000000000000000000000008152606082901c9063964f667d9061144f908b908b908b908b90600401612176565b600060405180830381600087803b15801561146957600080fd5b505af115801561147d573d6000803e3d6000fd5b505050505b506001016113bb565b50857f8c0b5119d4cec7b284c6b1b39252a03d1e2f2d7451a5895562524c113bb952be8686866040516114c093929190612143565b60405180910390a26114db828565ffffffffffff1685611ad7565b60005b81518110156102b25760008282815181106114fb576114fb611dfa565b602002602001015190506115276008826affffffffffffffffffffff1916611ab990919063ffffffff16565b156115a5576040517fa8ba8721000000000000000000000000000000000000000000000000000000008152606082901c9063a8ba872190611572908b908b908b908b90600401612176565b600060405180830381600087803b15801561158c57600080fd5b505af11580156115a0573d6000803e3d6000fd5b505050505b506001016114de565b60007f8b9d8c8b908d9affffffffffffffffffab9e9d939a8d0000000000000000000082016115fd57507e60030220202000000000000000000000000000000000000000000000000000919050565b61018461162a7f746273746f72650000000000000000005461626c65730000000000000000000084611aed565b60206000610fb2565b7f6f74000000000000000000000000000000000000000000000000000000000000867fffff00000000000000000000000000000000000000000000000000000000000016036116bf57857f8dbb3a9672eebfd3773e72dd9c102393436816d832c7ba9e1e1ac8fcadcac7a9868686866040516116b294939291906121ba565b60405180910390a2610cac565b60006116ca87611a30565b905060005b81518110156117a35760008282815181106116ec576116ec611dfa565b602002602001015190506117186001826affffffffffffffffffffff1916611ab990919063ffffffff16565b1561179a576040517f57066c9c000000000000000000000000000000000000000000000000000000008152606082901c906357066c9c90611767908c908c908c908c908c908c906004016121f9565b600060405180830381600087803b15801561178157600080fd5b505af1158015611795573d6000803e3d6000fd5b505050505b506001016116cf565b50867f8dbb3a9672eebfd3773e72dd9c102393436816d832c7ba9e1e1ac8fcadcac7a9878787876040516117da94939291906121ba565b60405180910390a260006117ee8888610f23565b90506000602087019050611806826000895184611b09565b60006118118561106a565b11156118955760006118238a8a61198f565b878155905060208601915060008060005b61183d8861106a565b8160ff161015611890576118528d8d836110ba565b925061186d8a8260ff166028026038011c64ffffffffff1690565b915061187c8360008488611b09565b6118868286611de7565b9450600101611834565b505050505b60005b8351811015610ca75760008482815181106118b5576118b5611dfa565b602002602001015190506118e16002826affffffffffffffffffffff1916611ab990919063ffffffff16565b15611963576040517f5b28cdaf000000000000000000000000000000000000000000000000000000008152606082901c90635b28cdaf90611930908e908e908e908e908e908e906004016121f9565b600060405180830381600087803b15801561194a57600080fd5b505af115801561195e573d6000803e3d6000fd5b505050505b50600101611898565b60405160208101601f19603f8484010116604052828252610faa8585858461113a565b600082826040516020016119a49291906120cf565b60408051601f1981840301815291905280516020909101207f14e2fcc58e58e68ec7edc30c8d50dccc3ce2714a623ec81f46b6a63922d76569189392505050565b5b60208110611a05578251825260209283019290910190601f19016119e6565b80600003611a1257505050565b6000600019600883021c905080835116811985511617835250505050565b60408051600180825281830190925260609160009190602080830190803683370190505090508281600081518110611a6a57611a6a611dfa565b60209081029190910101526000611aa27f746273746f726500000000000000000053746f7265486f6f6b730000000000008383611bc8565b9050610690611ab48260008451611205565b611c02565b60008160ff1682611aca8560581c90565b1660ff1614905092915050565b6108bd83838351611ae88560200190565b611b09565b6040805160208101849052908101829052600090606001610f38565b8215611b835760208310611b3357602083048401935060208381611b2f57611b2f611d8a565b0692505b8215611b835760208390036000600019600885021c1990506008850281811c91508351811c9050811987541682821617875550818411611b745750506111ff565b50600194909401939182900391015b5b60208210611ba55780518455600190930192601f1990910190602001611b84565b81156111ff576000600019600884021c8554835182191691161785555050505050565b6060610690611bd88585856110ba565b6000611bfd85611be889896110a7565b9060ff166028026038011c64ffffffffff1690565b61196c565b60606000611063836015600060606000611c1c8560801c90565b90506fffffffffffffffffffffffffffffffff85166000858281611c4257611c42611d8a565b04905060405193506020840160208202810160405281855260005b82811015611c7d578451871c825293870193602090910190600101611c5d565b50505050509392505050565b600060208284031215611c9b57600080fd5b81357fffffffff000000000000000000000000000000000000000000000000000000008116811461106357600080fd5b600060208284031215611cdd57600080fd5b81356004811061106357600080fd5b634e487b7160e01b600052601160045260246000fd5b63ffffffff828116828216039080821115611d1f57611d1f611cec565b5092915050565b634e487b7160e01b600052602160045260246000fd5b600382810b9082900b03637fffffff198112637fffffff8213171561018457610184611cec565b600381810b9083900b01637fffffff8113637fffffff198212171561018457610184611cec565b634e487b7160e01b600052601260045260246000fd5b60008260030b80611dc157634e487b7160e01b600052601260045260246000fd5b808360030b0791505092915050565b808202811582820484141761018457610184611cec565b8082018082111561018457610184611cec565b634e487b7160e01b600052603260045260246000fd5b634e487b7160e01b600052604160045260246000fd5b60008151808452602080850194506020840160005b83811015611e5757815187529582019590820190600101611e3b565b509495945050505050565b848152608060208201526000611e7b6080830186611e26565b60ff949094166040830152506060015292915050565b600060208284031215611ea357600080fd5b5051919050565b838152606060208201526000611ec36060830185611e26565b9050826040830152949350505050565b60005b83811015611eee578181015183820152602001611ed6565b50506000910152565b600082601f830112611f0857600080fd5b815167ffffffffffffffff80821115611f2357611f23611e10565b604051601f8301601f19908116603f01168101908282118183101715611f4b57611f4b611e10565b81604052838152866020858801011115611f6457600080fd5b611f75846020830160208901611ed3565b9695505050505050565b600080600060608486031215611f9457600080fd5b835167ffffffffffffffff80821115611fac57600080fd5b611fb887838801611ef7565b9450602086015193506040860151915080821115611fd557600080fd5b50611fe286828701611ef7565b9150509250925092565b60008151808452612004816020860160208601611ed3565b601f01601f19169290920160200192915050565b85815260a06020820152600061203160a0830187611e26565b60ff86166040840152828103606084015261204c8186611fec565b9150508260808301529695505050505050565b85815260a06020820152600061207860a0830187611e26565b828103604084015261208a8187611fec565b905084606084015282810360808401526120a48185611fec565b98975050505050505050565b600060ff821660ff81036120c6576120c6611cec565b60010192915050565b8281526000602080830184516020860160005b828110156120fe578151845292840192908401906001016120e2565b5091979650505050505050565b8181038181111561018457610184611cec565b6060815260006121316060830186611fec565b60208301949094525060400152919050565b6060815260006121566060830186611e26565b65ffffffffffff851660208401528281036040840152611f758185611fec565b84815260806020820152600061218f6080830186611e26565b65ffffffffffff8516604084015282810360608401526121af8185611fec565b979650505050505050565b6080815260006121cd6080830187611e26565b82810360208401526121df8187611fec565b905084604084015282810360608401526121af8185611fec565b86815260c06020820152600061221260c0830188611e26565b82810360408401526122248188611fec565b9050856060840152828103608084015261223e8186611fec565b9150508260a083015297965050505050505056fea2646970667358221220ded6e8312f0f985d994d53ef0c63a60a21c69f29abd87d635845356b7ab93c4c64736f6c63430008180033","linkReferences":{}},"methodIdentifiers":{"_msgSender()":"119df25f","_msgValue()":"45ec9354","_world()":"e1af802c","move(uint8)":"70e87aaf","supportsInterface(bytes4)":"01ffc9a7"},"id":90}