{"abi":[{"type":"function","name":"_msgSender","inputs":[],"outputs":[{"name":"sender","type":"address","internalType":"address"}],"stateMutability":"view"},{"type":"function","name":"_msgValue","inputs":[],"outputs":[{"name":"value","type":"uint256","internalType":"uint256"}],"stateMutability":"pure"},{"type":"function","name":"_world","inputs":[],"outputs":[{"name":"","type":"address","internalType":"address"}],"stateMutability":"view"},{"type":"function","name":"move","inputs":[{"name":"direction","type":"uint8","internalType":"enum Direction"}],"outputs":[],"stateMutability":"nonpayable"},{"type":"function","name":"spawn","inputs":[{"name":"x","type":"int32","internalType":"int32"},{"name":"y","type":"int32","internalType":"int32"}],"outputs":[],"stateMutability":"nonpayable"},{"type":"function","name":"supportsInterface","inputs":[{"name":"interfaceId","type":"bytes4","internalType":"bytes4"}],"outputs":[{"name":"","type":"bool","internalType":"bool"}],"stateMutability":"pure"},{"type":"event","name":"Store_SetRecord","inputs":[{"name":"tableId","type":"bytes32","indexed":true,"internalType":"ResourceId"},{"name":"keyTuple","type":"bytes32[]","indexed":false,"internalType":"bytes32[]"},{"name":"staticData","type":"bytes","indexed":false,"internalType":"bytes"},{"name":"encodedLengths","type":"bytes32","indexed":false,"internalType":"EncodedLengths"},{"name":"dynamicData","type":"bytes","indexed":false,"internalType":"bytes"}],"anonymous":false},{"type":"event","name":"Store_SpliceStaticData","inputs":[{"name":"tableId","type":"bytes32","indexed":true,"internalType":"ResourceId"},{"name":"keyTuple","type":"bytes32[]","indexed":false,"internalType":"bytes32[]"},{"name":"start","type":"uint48","indexed":false,"internalType":"uint48"},{"name":"data","type":"bytes","indexed":false,"internalType":"bytes"}],"anonymous":false},{"type":"error","name":"Slice_OutOfBounds","inputs":[{"name":"data","type":"bytes","internalType":"bytes"},{"name":"start","type":"uint256","internalType":"uint256"},{"name":"end","type":"uint256","internalType":"uint256"}]}],"bytecode":{"object":"0x608060405234801561001057600080fd5b50612725806100206000396000f3fe608060405234801561001057600080fd5b50600436106100725760003560e01c806345ec93541161005057806345ec9354146100e157806370e87aaf146100f4578063e1af802c1461010757600080fd5b806301ffc9a714610077578063119df25f1461009f57806320119d0b146100cc575b600080fd5b61008a6100853660046120e1565b61010f565b60405190151581526020015b60405180910390f35b6100a76101a8565b60405173ffffffffffffffffffffffffffffffffffffffff9091168152602001610096565b6100df6100da366004612135565b6101b7565b005b604051601f193601358152602001610096565b6100df610102366004612168565b61031d565b6100a7610773565b60007fffffffff0000000000000000000000000000000000000000000000000000000082167fb5dee1270000000000000000000000000000000000000000000000000000000014806101a257507fffffffff0000000000000000000000000000000000000000000000000000000082167f01ffc9a700000000000000000000000000000000000000000000000000000000145b92915050565b60006101b261077d565b905090565b60006101dd6101c46101a8565b73ffffffffffffffffffffffffffffffffffffffff1690565b90506101e8816107af565b1561023a5760405162461bcd60e51b815260206004820152600f60248201527f616c726561647920737061776e6564000000000000000000000000000000000060448201526064015b60405180910390fd5b6000806102468361083c565b50909250905081610257818761219f565b61026191906121dc565b94508061026e818661219f565b61027891906121dc565b9350600061028686866108f5565b905061029181610937565b156102de5760405162461bcd60e51b815260206004820152601860248201527f74686973207370616365206973206f62737472756374656400000000000000006044820152606401610231565b6102e98460016109b0565b6102f4848787610a56565b6102ff846001610af0565b61030a846000610b74565b610315846000610bf8565b505050505050565b600061032a6101c46101a8565b905061033581610c7c565b6103815760405162461bcd60e51b815260206004820152600b60248201527f63616e6e6f74206d6f76650000000000000000000000000000000000000000006044820152606401610231565b61038a81610cf5565b156103d75760405162461bcd60e51b815260206004820152601f60248201527f63616e6e6f74206d6f766520647572696e6720616e20656e636f756e746572006044820152606401610231565b60008060006103e58461083c565b9250925092506000806103f786610d86565b909250905061040760028661220c565b63ffffffff168263ffffffff16148015610436575061042760018561220c565b63ffffffff168163ffffffff16145b80156104535750600287600381111561045157610451612230565b145b1561047757610463866000610af0565b61046e866001610b74565b50505050505050565b600087600381111561048b5761048b612230565b036104f5578060030b6000036104e35760405162461bcd60e51b815260206004820152601160248201527f63616e6e6f74206d6f7665206e6f7274680000000000000000000000000000006044820152606401610231565b6104ee600182612246565b905061067c565b600187600381111561050957610509612230565b0361057f57610519600186612246565b60030b8260030b0361056d5760405162461bcd60e51b815260206004820152601060248201527f63616e6e6f74206d6f76652065617374000000000000000000000000000000006044820152606401610231565b61057860018361219f565b915061067c565b600287600381111561059357610593612230565b03610602576105a3600185612246565b60030b8160030b036105f75760405162461bcd60e51b815260206004820152601160248201527f63616e6e6f74206d6f766520736f7574680000000000000000000000000000006044820152606401610231565b6104ee60018261219f565b600387600381111561061657610616612230565b0361067c578160030b60000361066e5760405162461bcd60e51b815260206004820152601060248201527f63616e6e6f74206d6f76652077657374000000000000000000000000000000006044820152606401610231565b610679600183612246565b91505b84610687818461219f565b61069191906121dc565b91508361069e818361219f565b6106a891906121dc565b90506000836106c063ffffffff80891690851661226d565b6106d09063ffffffff8616612284565b815181106106e0576106e0612297565b016020015160f81c9050801561075e5760405162461bcd60e51b815260206004820152602560248201527f63616e6e6f74206d6f7665206f6e746f206e6f6e2d77616c6b61626c6520746560448201527f727261696e0000000000000000000000000000000000000000000000000000006064820152608401610231565b610769878484610a56565b5050505050505050565b60006101b2610e39565b7fffffffffffffffffffffffffffffffffffffffffffffffffffffffffffffffcc36013560601c806107ac5750335b90565b6040805160018082528183019092526000918291906020808301908036833701905050905082816000815181106107e8576107e8612297565b602090810291909101015260006108287f74620000000000000000000000000000506c61796572000000000000000000008383630101000160d81b610e43565b90506108348160f81c90565b949350505050565b604080516001808252818301909252600091829160609183919060208083019080368337019050509050848160008151811061087a5761087a612297565b6020908102919091010152600080806108d37f746200000000000000000000000000004d6170436f6e66696700000000000000857e08020104040000000000000000000000000000000000000000000000000000610f1a565b9250925092506108e4838383611004565b965096509650505050509193909250565b60008282604051602001610919929190600392830b8152910b602082015260400190565b60405160208183030381529060405280519060200120905092915050565b60408051600180825281830190925260009182919060208083019080368337019050509050828160008151811061097057610970612297565b602090810291909101015260006108287f746200000000000000000000000000004f62737472756374696f6e00000000008383630101000160d81b610e43565b6040805160018082528183019092526000916020808301908036833701905050905082816000815181106109e6576109e6612297565b602002602001018181525050610a517f74620000000000000000000000000000506c617965720000000000000000000060001b82600085604051602001610a3491151560f81b815260010190565b60408051601f19818403018152919052630101000160d81b61103d565b505050565b6040805160e084811b6020808401919091529084901b60248301528251600881840301815260016028840181815260688501909552909360009360609385939160480190803683370190505090508681600081518110610ab857610ab8612297565b602090810291909101015261046e7f74620000000000000000000000000000506f736974696f6e00000000000000008286868661110c565b604080516001808252818301909252600091602080830190803683370190505090508281600081518110610b2657610b26612297565b602002602001018181525050610a517f746200000000000000000000000000004d6f7661626c6500000000000000000060001b82600085604051602001610a3491151560f81b815260010190565b604080516001808252818301909252600091602080830190803683370190505090508281600081518110610baa57610baa612297565b602002602001018181525050610a517f7462000000000000000000000000000057696e6e65720000000000000000000060001b82600085604051602001610a3491151560f81b815260010190565b604080516001808252818301909252600091602080830190803683370190505090508281600081518110610c2e57610c2e612297565b602002602001018181525050610a517f74620000000000000000000000000000456e636f756e74657261626c6500000060001b82600085604051602001610a3491151560f81b815260010190565b604080516001808252818301909252600091829190602080830190803683370190505090508281600081518110610cb557610cb5612297565b602090810291909101015260006108287f746200000000000000000000000000004d6f7661626c650000000000000000008383630101000160d81b610e43565b604080516001808252818301909252600091829190602080830190803683370190505090508281600081518110610d2e57610d2e612297565b602090810291909101015260006108287f74620000000000000000000000000000456e636f756e7465720000000000000083837e41030001202000000000000000000000000000000000000000000000000000610e43565b60408051600180825281830190925260009182918291602080830190803683370190505090508381600081518110610dc057610dc0612297565b602090810291909101015260008080610e197f74620000000000000000000000000000506f736974696f6e0000000000000000857e08020004040000000000000000000000000000000000000000000000000000610f1a565b5050602081015160249091015160e091821c99911c975095505050505050565b60006101b261119c565b600080610e4e61119c565b90503073ffffffffffffffffffffffffffffffffffffffff821603610e8157610e79868686866111e8565b915050610834565b6040517f8c364d5900000000000000000000000000000000000000000000000000000000815273ffffffffffffffffffffffffffffffffffffffff821690638c364d5990610ed99089908990899089906004016122ff565b602060405180830381865afa158015610ef6573d6000803e3d6000fd5b505050506040513d601f19601f82011682018060405250810190610e79919061232e565b6060600060606000610f2a61119c565b90503073ffffffffffffffffffffffffffffffffffffffff821603610f6057610f5487878761121e565b93509350935050610ffb565b6040517f419b58fd00000000000000000000000000000000000000000000000000000000815273ffffffffffffffffffffffffffffffffffffffff82169063419b58fd90610fb6908a908a908a90600401612347565b600060405180830381865afa158015610fd3573d6000803e3d6000fd5b505050506040513d6000823e601f3d908101601f19168201604052610f54919081019061241c565b93509350939050565b600080606061102386602081015160249091015160e091821c92911c90565b90935091506110328585611326565b905093509350939050565b600061104761119c565b90503073ffffffffffffffffffffffffffffffffffffffff821603611078576110738686868686611349565b610315565b6040517f390baae000000000000000000000000000000000000000000000000000000000815273ffffffffffffffffffffffffffffffffffffffff82169063390baae0906110d290899089908990899089906004016124b5565b600060405180830381600087803b1580156110ec57600080fd5b505af1158015611100573d6000803e3d6000fd5b50505050505050505050565b600061111661119c565b90503073ffffffffffffffffffffffffffffffffffffffff821603611142576110738686868686611365565b6040517f298314fb00000000000000000000000000000000000000000000000000000000815273ffffffffffffffffffffffffffffffffffffffff82169063298314fb906110d290899089908990899089906004016124fc565b7f629a4c26e296b22a8e0856e9f6ecb2d1008d7e00081111962cd175fa7488e1755460009073ffffffffffffffffffffffffffffffffffffffff16806111e3573391505090565b919050565b60006112156111f7868661137b565b60ff858116601b0360080285901c1661121085876113d1565b61140a565b95945050505050565b606060006060600061122f8561145b565b905061123c87878361147e565b93506000611249866114c2565b9050801561131b5761125b88886114ff565b935066ffffffffffffff841667ffffffffffffffff81111561127f5761127f6122ad565b6040519080825280601f01601f1916602001820160405280156112a9576020820181803683370190505b5092506020830160005b828160ff1610156113185760006112cb8b8b84611512565b905060006112e8888460ff166028026038011c64ffffffffff1690565b90506112f78260008387611592565b6113018185612284565b9350505080806113109061254d565b9150506112b3565b50505b505093509350939050565b60606000603884901c64ffffffffff1661121561134485848461165d565b6116eb565b61135e858561135884876113d1565b8561176b565b5050505050565b61135e85858585856113768b611a06565b611a8b565b6000828260405160200161139092919061256c565b60408051601f1981840301815291905280516020909101207f86425bff6b57326c7859e89024fe4f238ca327a1ae4a230180dd2f0e88aaa7d9189392505050565b600080805b8360ff16811015611402576113f860ff601b83900360080287901c1683612284565b91506001016113d6565b509392505050565b6000602082106114305760208204840193506020828161142c5761142c6121c6565b0691505b508254600882021b602082900380841115611402576001850154600882021c82179150509392505050565b6000600861146b600260206125a8565b611475919061226d565b9190911c919050565b60608160000361149d57506040805160208101909152600081526114bb565b60006114a9858561137b565b90506114b781600085611dc4565b9150505b9392505050565b600060086001806114d5600260206125a8565b6114df91906125a8565b6114e991906125a8565b6114f3919061226d565b8260ff911c1692915050565b60006114bb61150e8484611de7565b5490565b6000838360405160200161152792919061256c565b604051602081830303815290604052805190602001208260f81b7effffffffffffffffffffffffffffffffffffffffffffffffffffffffffffff19167f3b4102da22e32d82fc925482184f16c09fd4281692720b87d124aef6da48a0f1181860001c90509392505050565b821561161957602083106115bc576020830484019350602083816115b8576115b86121c6565b0692505b82156116195760208390036000818410156115df5750600019600884021c6115e9565b50600019600882021c5b8554600886021b81845116821982161784525081841161160a575050611657565b50600194909401939182900391015b5b6020821061163b5783548152600190930192601f199091019060200161161a565b81156116575780518454600019600885021c9182169119161781525b50505050565b60008183118061166d5750835182115b156116aa578383836040517f23230fa3000000000000000000000000000000000000000000000000000000008152600401610231939291906125bb565b602084016116b88482612284565b905060006116c685856125a8565b6fffffffffffffffffffffffffffffffff1660809290921b9190911795945050505050565b606060006116f98360801c90565b90506fffffffffffffffffffffffffffffffff83168067ffffffffffffffff811115611727576117276122ad565b6040519080825280601f01601f191660200182016040528015611751576020820181803683370190505b50925060208301611763838284611e3d565b505050919050565b7f6f74000000000000000000000000000000000000000000000000000000000000847fffff00000000000000000000000000000000000000000000000000000000000016036117f557837f8c0b5119d4cec7b284c6b1b39252a03d1e2f2d7451a5895562524c113bb952be8484846040516117e8939291906125e0565b60405180910390a2611657565b6000611801858561137b565b9050600061180e86611e88565b905060005b81518110156118e357600082828151811061183057611830612297565b6020026020010151905061185c6004826affffffffffffffffffffff1916611f1190919063ffffffff16565b156118da576040517f964f667d000000000000000000000000000000000000000000000000000000008152606082901c9063964f667d906118a7908b908b908b908b90600401612613565b600060405180830381600087803b1580156118c157600080fd5b505af11580156118d5573d6000803e3d6000fd5b505050505b50600101611813565b50857f8c0b5119d4cec7b284c6b1b39252a03d1e2f2d7451a5895562524c113bb952be868686604051611918939291906125e0565b60405180910390a2611933828565ffffffffffff1685611f2f565b60005b815181101561046e57600082828151811061195357611953612297565b6020026020010151905061197f6008826affffffffffffffffffffff1916611f1190919063ffffffff16565b156119fd576040517fa8ba8721000000000000000000000000000000000000000000000000000000008152606082901c9063a8ba8721906119ca908b908b908b908b90600401612613565b600060405180830381600087803b1580156119e457600080fd5b505af11580156119f8573d6000803e3d6000fd5b505050505b50600101611936565b60007f8b9d8c8b908d9affffffffffffffffffab9e9d939a8d000000000000000000008201611a5557507e60030220202000000000000000000000000000000000000000000000000000919050565b6101a2611a827f746273746f72650000000000000000005461626c65730000000000000000000084611f45565b6020600061140a565b7f6f74000000000000000000000000000000000000000000000000000000000000867fffff0000000000000000000000000000000000000000000000000000000000001603611b1757857f8dbb3a9672eebfd3773e72dd9c102393436816d832c7ba9e1e1ac8fcadcac7a986868686604051611b0a9493929190612657565b60405180910390a2610315565b6000611b2287611e88565b905060005b8151811015611bfb576000828281518110611b4457611b44612297565b60200260200101519050611b706001826affffffffffffffffffffff1916611f1190919063ffffffff16565b15611bf2576040517f57066c9c000000000000000000000000000000000000000000000000000000008152606082901c906357066c9c90611bbf908c908c908c908c908c908c90600401612696565b600060405180830381600087803b158015611bd957600080fd5b505af1158015611bed573d6000803e3d6000fd5b505050505b50600101611b27565b50867f8dbb3a9672eebfd3773e72dd9c102393436816d832c7ba9e1e1ac8fcadcac7a987878787604051611c329493929190612657565b60405180910390a26000611c46888861137b565b90506000602087019050611c5e826000895184611f61565b6000611c69856114c2565b1115611ced576000611c7b8a8a611de7565b878155905060208601915060008060005b611c95886114c2565b8160ff161015611ce857611caa8d8d83611512565b9250611cc58a8260ff166028026038011c64ffffffffff1690565b9150611cd48360008488611f61565b611cde8286612284565b9450600101611c8c565b505050505b60005b8351811015611100576000848281518110611d0d57611d0d612297565b60200260200101519050611d396002826affffffffffffffffffffff1916611f1190919063ffffffff16565b15611dbb576040517f5b28cdaf000000000000000000000000000000000000000000000000000000008152606082901c90635b28cdaf90611d88908e908e908e908e908e908e90600401612696565b600060405180830381600087803b158015611da257600080fd5b505af1158015611db6573d6000803e3d6000fd5b505050505b50600101611cf0565b60405160208101601f19603f848401011660405282825261140285858584611592565b60008282604051602001611dfc92919061256c565b60408051601f1981840301815291905280516020909101207f14e2fcc58e58e68ec7edc30c8d50dccc3ce2714a623ec81f46b6a63922d76569189392505050565b5b60208110611e5d578251825260209283019290910190601f1901611e3e565b80600003611e6a57505050565b6000600019600883021c905080835116811985511617835250505050565b60408051600180825281830190925260609160009190602080830190803683370190505090508281600081518110611ec257611ec2612297565b60209081029190910101526000611efa7f746273746f726500000000000000000053746f7265486f6f6b730000000000008383612020565b9050610834611f0c826000845161165d565b61205a565b60008160ff1682611f228560581c90565b1660ff1614905092915050565b610a5183838351611f408560200190565b611f61565b6040805160208101849052908101829052600090606001611390565b8215611fdb5760208310611f8b57602083048401935060208381611f8757611f876121c6565b0692505b8215611fdb5760208390036000600019600885021c1990506008850281811c91508351811c9050811987541682821617875550818411611fcc575050611657565b50600194909401939182900391015b5b60208210611ffd5780518455600190930192601f1990910190602001611fdc565b8115611657576000600019600884021c8554835182191691161785555050505050565b6060610834612030858585611512565b60006120558561204089896114ff565b9060ff166028026038011c64ffffffffff1690565b611dc4565b606060006114bb8360156000606060006120748560801c90565b90506fffffffffffffffffffffffffffffffff8516600085828161209a5761209a6121c6565b04905060405193506020840160208202810160405281855260005b828110156120d5578451871c8252938701936020909101906001016120b5565b50505050509392505050565b6000602082840312156120f357600080fd5b81357fffffffff00000000000000000000000000000000000000000000000000000000811681146114bb57600080fd5b8035600381900b81146111e357600080fd5b6000806040838503121561214857600080fd5b61215183612123565b915061215f60208401612123565b90509250929050565b60006020828403121561217a57600080fd5b8135600481106114bb57600080fd5b634e487b7160e01b600052601160045260246000fd5b600381810b9083900b01637fffffff8113637fffffff19821217156101a2576101a2612189565b634e487b7160e01b600052601260045260246000fd5b60008260030b806121fd57634e487b7160e01b600052601260045260246000fd5b808360030b0791505092915050565b63ffffffff82811682821603908082111561222957612229612189565b5092915050565b634e487b7160e01b600052602160045260246000fd5b600382810b9082900b03637fffffff198112637fffffff821317156101a2576101a2612189565b80820281158282048414176101a2576101a2612189565b808201808211156101a2576101a2612189565b634e487b7160e01b600052603260045260246000fd5b634e487b7160e01b600052604160045260246000fd5b60008151808452602080850194506020840160005b838110156122f4578151875295820195908201906001016122d8565b509495945050505050565b84815260806020820152600061231860808301866122c3565b60ff949094166040830152506060015292915050565b60006020828403121561234057600080fd5b5051919050565b83815260606020820152600061236060608301856122c3565b9050826040830152949350505050565b60005b8381101561238b578181015183820152602001612373565b50506000910152565b600082601f8301126123a557600080fd5b815167ffffffffffffffff808211156123c0576123c06122ad565b604051601f8301601f19908116603f011681019082821181831017156123e8576123e86122ad565b8160405283815286602085880101111561240157600080fd5b612412846020830160208901612370565b9695505050505050565b60008060006060848603121561243157600080fd5b835167ffffffffffffffff8082111561244957600080fd5b61245587838801612394565b945060208601519350604086015191508082111561247257600080fd5b5061247f86828701612394565b9150509250925092565b600081518084526124a1816020860160208601612370565b601f01601f19169290920160200192915050565b85815260a0602082015260006124ce60a08301876122c3565b60ff8616604084015282810360608401526124e98186612489565b9150508260808301529695505050505050565b85815260a06020820152600061251560a08301876122c3565b82810360408401526125278187612489565b905084606084015282810360808401526125418185612489565b98975050505050505050565b600060ff821660ff810361256357612563612189565b60010192915050565b8281526000602080830184516020860160005b8281101561259b5781518452928401929084019060010161257f565b5091979650505050505050565b818103818111156101a2576101a2612189565b6060815260006125ce6060830186612489565b60208301949094525060400152919050565b6060815260006125f360608301866122c3565b65ffffffffffff8516602084015282810360408401526124128185612489565b84815260806020820152600061262c60808301866122c3565b65ffffffffffff85166040840152828103606084015261264c8185612489565b979650505050505050565b60808152600061266a60808301876122c3565b828103602084015261267c8187612489565b9050846040840152828103606084015261264c8185612489565b86815260c0602082015260006126af60c08301886122c3565b82810360408401526126c18188612489565b905085606084015282810360808401526126db8186612489565b9150508260a083015297965050505050505056fea2646970667358221220d3b72574ce694f6217c1f824a3206d2c79f75bb2d663d03ba5948fcd0755e58864736f6c63430008180033","linkReferences":{}},"methodIdentifiers":{"_msgSender()":"119df25f","_msgValue()":"45ec9354","_world()":"e1af802c","move(uint8)":"70e87aaf","spawn(int32,int32)":"20119d0b","supportsInterface(bytes4)":"01ffc9a7"},"id":96}